:020000040800F2
:1000000048B401207D0200088B0200088D02000820
:100010008F0200089102000893020008000000000F
:100020000000000000000000000000009502000831
:100030009702000800000000990200089B020008D7
:100040009D0200089D0200089D020008111402088C
:100050009D0200089D0200089D0200089D02000804
:100060009D0200089D0200089D0200089D020008F4
:100070009D0200089D0200089D760008C5760008D4
:100080009D020008ED7600089D020008414D000821
:10009000254C00089D0200089D0200089D020008F2
:1000A000454E0208054F0208A54E02089D020008B1
:1000B000AD4F0208F94F02084D5002089D0200089A
:1000C0009D0200089D0200089D0200089D02000894
:1000D0009D020008055C02089D020008815C020880
:1000E0009D020008FD1002089D020008AD510208A3
:1000F0006D5202080D5202089D020008097700089F
:100100009D02000849190208AD5002089D0200082E
:100110007D5902089D0200080D5102089D02000849
:100120009D0200089D0200089D0200089D02000833
:100130009D020008898900089D0200089D020008B0
:100140009D0200089D0200089D020008290A02087D
:100150009D02000825770008457700089D020008E9
:100160009D0200089D0200089D0200089D020008F3
:100170009D0200089D0200089D0200089D020008E3
:100180009D0200089D02000800F002F800F067F8E8
:100190000AA090E8000C82448344AAF10107DA45E2
:1001A00001D100F05CF8AFF2090EBAE80F0013F0CD
:1001B000010F18BFFB1A43F001031847907E03009C
:1001C000B07E03000A444FF0000C10F8013B13F01E
:1001D000070408BF10F8014B1D1108BF10F8015BA0
:1001E000641E05D010F8016B641E01F8016BF9D193
:1001F00013F0080F1EBF10F8014BAD1C0C1B09D1EA
:100200006D1E58BF01F801CBFAD505E014F8016B5B
:1002100001F8016B6D1EF9D59142D6D370470000ED
:100220000023002400250026103A28BF78C1FBD8FF
:10023000520728BF30C148BF0B607047642900F0E7
:10024000FB80782900F03481732900F0AE8400200F
:1002500070471FB537F087F81FBD10B510BD00F00F
:10026000C7FC1146FFF7F5FF30F0ABFA00F0E5FCF4
:1002700003B4FFF7F2FF03BC2AF0E3FA0B4801686E
:1002800041F4700101600A480047FEE7FEE7FEE71F
:10029000FEE7FEE7FEE7FEE7FEE7FEE7FEE700001B
:1002A00004480549034A054B7047000088ED00E00B
:1002B000890100084880012048B4012048800120BD
:1002C0007047B2F120030AD5C2F1200301FA02F10E
:1002D00020FA03F300FA02F041EA0301704700FA42
:1002E00003F14FF000007047B2F120030AD5C2F1CC
:1002F000200320FA02F001FA03F321FA02F140EAA6
:100300000300704721FA03F04FF00001704710B569
:100310004C1084EA530404D54042C1F1000138BFB7
:10032000491E1B4204D55242C3F1000338BF5B1E75
:1003300000F030FB14F0804F04D04042C1F10001C6
:1003400038BF491E14F0004F04D05242C3F10003DD
:1003500038BF5B1E10BD00000FB4044910B503AADE
:10036000029800F027FC10BC5DF814FB7802002016
:100370000FB41CB5074B06AA7B446946009005984C
:1003800000F0E9FB0020694600F0F8FB1CBC5DF8BA
:1003900014FB00000108000070B504468569006880
:1003A000C10601D5302600E02026C00707D070BD69
:1003B000D4E9012130469047206A401C20626D1E1E
:1003C000F6D570BD70B5044685690078C00707D1C1
:1003D00070BDD4E9012120209047206A401C206292
:1003E0006D1EF6D570BD70B50C460546012A05D0C8
:1003F0002878800600D5EA69002302E0012305E0A1
:100400005B1C934202D2E05C0028F9D1A869E6188F
:10041000C01AA861286A184428622846FFF7BCFF62
:1004200004E0D5E9012114F8010B9047B442F8D358
:100430002846FFF7C7FF70BD2DE9F04106460024AE
:1004400010687529314616A510D0AFF3008000283A
:1004500002DA404213A507E031688A0701D512A5E8
:1004600002E0490704D511A5012401E0AFF30080A3
:1004700000210A2206F1240709E0B0FBF2FCB0FBE0
:10048000F2F302FB1C00303078541846491C002857
:10049000F3D123462A463046BDE8F04100F0FCBACD
:1004A000000000002D0000002B00000020000000D4
:1004B00070B504460D4621461068AFF300802188D0
:1004C000090502D50F4A7A4402E00E4A7A440E32F8
:1004D000002104F1240305E000F00F060009965DF9
:1004E0005E54491C0028F7D120780023000704D56A
:1004F000702D02D009B1022311322046BDE87040B0
:1005000000F0CABA747903002DE9F05F8946044609
:100510004FF0000ADFF824B1FB44C0F820A02046C9
:10052000E168884700287DD0252806D0D4E901213C
:100530009047206A401C2062F1E700255F46204674
:10054000E16888472028064607DB312E05D2B81916
:1005500010F8200C08B10543F1E7A80701D525F0F4
:100560000405C4F81CA00027C4F818A02A2E09D03E
:1005700030462AF05FF938B304EB8708303EC8F8FC
:10058000186019E059F8041B204604EB87029161BA
:10059000E1688847012F064618D1E069002820DA73
:1005A00025F020051DE0D8F8180000EB800006EBD0
:1005B00040003038C8F818002046E16888470646F1
:1005C0002AF038F90028EED1012F0AD02E2E08D1BA
:1005D0002046E16888477F1C0646022F45F020052B
:1005E000C4DBA069002803DA404245F00105A061A0
:1005F000E80701D025F01005A6B1A6F141001928A1
:1006000002D8203645F400654A463146204625602A
:100610004D46FFF713FE60B1012807D0ED1D25F010
:10062000070000E007E000F1080978E705F1040998
:1006300075E730467AE7206ABDE8F09F4A79030003
:1006400040EA010310B59B070FD1042A0DD310C84F
:1006500008C9121F9C42F8D020BA19BA884201D9A1
:10066000012010BD4FF0FF3010BD1AB1D30703D0E9
:10067000521C07E0002010BD10F8013B11F8014B9F
:100680001B1B07D110F8013B11F8014B1B1B01D1BB
:10069000921EF1D1184610BD40EA0103024630B562
:1006A0009B0710D14FF0013400E008C208C91D1BA0
:1006B0009D4315EAC41FF8D013F0FF0102F8011B97
:1006C0000DD01B0AF8E711F8013B002B02F8013BA3
:1006D00005D011F8013B002B02F8013BF3D130BDEE
:1006E00010B5431C02E010F8011B71B18107FAD16B
:1006F0004FF0013202C88C1A8C4314EAC211F9D0AF
:10070000C01A0A0603D0C01E10BDC01A10BD0A04CC
:1007100001D0801E10BD0902FCD0401E10BD421E3B
:1007200012F8013F002BFBD111F8013B002B02F81E
:10073000013BF9D17047032A40F2308010F0030CDE
:1007400000F0158011F8013BBCF1020F624498BF24
:1007500011F801CB00F8013B38BF11F8013BA2F1C1
:10076000040298BF00F801CB38BF00F8013B11F03C
:10077000030300F02580083AC0F0088051F8043BDC
:10078000083A51F804CBA0E80810F5E7121D5CBF49
:1007900051F8043B40F8043BAFF30080D20724BF7C
:1007A00011F8013B11F801CB48BF11F8012B24BF10
:1007B00000F8013B00F801CB48BF00F8012B70475F
:1007C00010B5203AC0F00B80B1E81850203AA0E8EC
:1007D0001850B1E81850A0E81850BFF4F5AF5FEA20
:1007E000027C24BFB1E81850A0E8185044BF18C9D3
:1007F00018C0BDE810405FEA827C24BF51F8043B7A
:1008000040F8043B08BF7047D20728BF31F8023BCD
:1008100048BF11F8012B28BF20F8023B48BF00F861
:10082000012B70474FF000020429C0F0128010F035
:10083000030C00F01B80CCF1040CBCF1020F18BFBC
:1008400000F8012BA8BF20F8022BA1EB0C0100F04F
:100850000DB85FEAC17C24BF00F8012B00F8012B22
:1008600048BF00F8012B70474FF0000200B5134657
:1008700094469646203922BFA0E80C50A0E80C50C0
:10088000B1F12001BFF4F7AF090728BFA0E80C5071
:1008900048BF0CC05DF804EB890028BF40F8042B6A
:1008A00008BF704748BF20F8022B11F0804F18BFD7
:1008B00000F8012B704710B5044610F0030F08BF75
:1008C00011F0030F40F015804FF0013E121FC0F2EF
:1008D0000E8051F8043BA3EB0E0C2CEA030C1CEA2F
:1008E000CE1C08BF40F8043BF0D0A1F1040102F196
:1008F0000402521E08DB11F8013B002B00F8013BFB
:10090000F7D11146FFF78EFF204610BD4FF0013C96
:1009100050F8042B51F8043B9A4221D1A2EB0C036E
:10092000934313EACC1317D150F8042B51F8043B2E
:100930009A4215D1A2EB0C03934313EACC130BD1CB
:1009400050F8042B51F8043B9A4209D1A2EB0C0356
:10095000934313EACC13DBD04FF00000704700BF85
:10096000D01A01BAB1FA81F101F0180122FA01F0AE
:10097000CB40C1F12001DBB2C0B2C01A2CFA01F3A6
:10098000D11A914311EAC311E6D1704770477047FD
:100990007047704753EA020C00F069802DE9F04B74
:1009A0004FF00006002B1FBFB3FA83F503FA05F4DE
:1009B00024FA05F65E4012BF1643B2FA82F502FA37
:1009C00005F4C5F120051EBF22FA05FC44EA0C041B
:1009D000203556EA044C4FEA144418BF641C4FF00B
:1009E00000084FF00009904271EB030C39D3002945
:1009F00019BFB1FA81F701FA07F6B0FA80F700FAE9
:100A000007F6C7F120071EBF20FA07FC46EA0C06CE
:100A10002037B6FBF4FCA7EB0507103F07F01F0BD0
:100A2000CBF120060CFA0BFB2CFA06F644BFB346BA
:100A30000026202FA4BF5E464FF0000B5BEA060C99
:100A400008BF4FF0010B19EB0B09ABFB027C48EB25
:100A50000608C01B06FB02CC0BFB03CC71EB0C01A0
:100A6000C1E70B46024641464846BDE8F08B13B548
:100A70004FF000004FF00001AFF30080BDE81C40D4
:100A8000704710B500F0A8F8006810BD10B5044616
:100A900000F0A2F8046010BD2DE9F0470D4699461C
:100AA0009246044600F124080168880604D5E069EE
:100AB00021F01001216000E00120A84201DD471B68
:100AC00000E00027A1697A1902EB0900081AA06169
:100AD0002078C00602D42046FFF75EFC002608E01E
:100AE000D4E901211AF806009047206A401C761CC0
:100AF00020624E45F4DB2078C0060AD52046FFF779
:100B00004BFC06E0D4E9012130209047206A401CCC
:100B10002062381EA7F10107F4DC07E0D4E90121C7
:100B200018F805009047206A401C2062281EA5F195
:100B30000105F3DC2046FFF745FC2078000602D5CE
:100B40000220BDE8F0870120FBE7000001694A1C94
:100B500002610878704700B58FB0CDE901310021FE
:100B6000059105497944CDE9031011466846FFF720
:100B7000CBFC0FB000BD0000E5FFFFFF0A6802F8E4
:100B8000010B0A60704710B5436913B1AFF30080E1
:100B900001E0FFF728FC012010BD127800F12401CC
:100BA0000A7000224A700122EDE711684FF0FF320F
:100BB000E9E70000074B70B50D467B44FFF7CBFF1C
:100BC0000446284600F00CF810B14FF0FF3070BD1D
:100BD000204670BDF7D0020000487047E87F012032
:100BE000007B00F08000704700487047E87F0120DC
:100BF0007546FFF7F9FFAE4605006946534620F0FB
:100C00000700854618B020B5FFF74AFBBDE8204035
:100C10004FF000064FF000074FF000084FF0000BB8
:100C200021F00701AC46ACE8C009ACE8C009ACE86B
:100C3000C009ACE8C0098D46704710B50446AFF353
:100C400000802046BDE81040FFF712BB014608298E
:100C500004DA044850F82100008870474FF0FF3054
:100C6000FBE700003C0300201CB50120314908804F
:100C700031490880002000900346032202210190A0
:100C80002E4809F023F82E48006840F480702C4963
:100C900008600846006820F4807008604FF4403017
:100CA0002849086000202849486088600846406854
:100CB00048600846406848600846806840F0020086
:100CC00088600846806820F4006088600846806874
:100CD00088600846C06A20F47000C8620846C06A8E
:100CE000C8620846006920F0605008610846006943
:100CF00040F0405008610846806840F0010088607C
:100D00000846806840F4007088600846806840F4B7
:100D1000807088600846406B20F01F0048630846DA
:100D2000406B40F0090048630846806840F080400E
:100D300088601CBDA00847420406474200040240E8
:100D40002438024004230140002001401CB501204A
:100D50003E4908803E490880002000900346032257
:100D6000012101903B4808F0B1FF3B48006840F486
:100D70000070394908600846006820F40070086077
:100D80000020364908603649C1F808013348006838
:100D9000C1F8040131480068C1F804010846D0F8E0
:100DA000080140F00200C1F808010846D0F8080127
:100DB00020F40060C1F808012848001D0068C1F84F
:100DC00008010846D0F82C0120F47000C1F82C016D
:100DD000224828300068C1F82C010846D0F81001DC
:100DE00020F0E060C1F810010846D0F8100140F092
:100DF000E060C1F810010846D0F8080140F0010099
:100E0000C1F808010846D0F8080140F40070C1F8A4
:100E100008010846D0F8080140F48070C1F80801C4
:100E20000846D0F8340120F01F00C1F8340108460C
:100E3000D0F8340140F00800C1F834010846D0F879
:100E4000080140F08040C1F808011CBDA4084742D9
:100E500004064742000402402438024004210140B5
:100E6000002001401CB50A203221124B124ACDE964
:100E70000010002111481BF0BDF90A2032210D4B52
:100E800064330F4ACDE9001001210C4830301BF0CB
:100E9000B1F9322109481BF085FA32210748303078
:100EA0001BF080FA02202AF0EBF8FFF7DDFEFFF7D7
:100EB0004DFF1CBD606E00204C20014010640240BC
:100EC0004C21014013200FE00949096851F8201016
:100ED00049B10146C21700EB92729210521C044BAA
:100EE0001B681A6502E0401E0028EDDA00BF70475B
:100EF000C40700200C4A1168B1F8D428012A11D186
:100F00000022A1F8D428002006E00022074B1B682D
:100F100043F82020421CD0B21428F6DB0022034BF9
:100F20001B681A6570470000CC070020C40700202A
:100F300030B5012818DB052816DC032914DC1F2A2C
:100F400012DC0423C3EB80030B44084C246854F8E0
:100F500023300124944023430424C4EB80040C4434
:100F6000024D2D6845F8243030BD0000C407002034
:100F700010B5002410E0A01DC1B2002009F018FD3A
:100F8000012807D1A01CC2B200210420FFF7D0FF26
:100F900028F02CFD601CC4B2052CECDB0D2014F0F5
:100FA0009FFC012806D1002211460220FFF7C0FF56
:100FB00028F01CFD10BD00003EB54FF47A60811092
:100FC000009142F6E463254ACDE90110A2F694416E
:100FD000A1F543702EF0EAF82148224988620024E6
:100FE00005E0012120461FF035FD601CC4B2182C1D
:100FF000F7DB002405E00121204607F0C7FB601C59
:10100000C4B2082CF7DB1849144803F07AF805F04D
:1010100019FC01211348C0F8EC13B7EE000A00F6E2
:10102000B83080ED4D0A00210E48C0F8C81BC0F84A
:10103000CC1B00F5FA50C0F89414C0F89014C0F816
:101040009010C0F87014C0F8881420210748FFF7EA
:10105000E9FB00210348C0F8041D3EBD40190020F3
:1010600006EF080CA0090020A0220020980D002007
:1010700070B5A0B00446C4EB0410D94A02EBC0001E
:1010800000F12801142207A8FFF79AFBC4EB041013
:10109000D34A02EBC00000F11401142202A8FFF7AA
:1010A0008FFBC4EB0410CE4901EBC001D1E9030171
:1010B000CDE90001C4EB0410C94901EBC00620468C
:1010C00096E80E0024F05CFAC4EB0410C44901EB6E
:1010D000C00090ED130AB5EEC00AF1EE10FA7DD013
:1010E00000252DE0C4EB0410BD4A02EBC0017822BC
:1010F00001A8FFF765FBC4EB0410B94901EBC00080
:1011000005EB850100EB810000690090C4EB041041
:10111000B34901EBC00005EB850100EB810696E8C1
:101120000F0020F00DFAC4EB0410AD4901EBC00034
:1011300005EB850100EB810080ED040A681CC5B257
:10114000032DCFDBC4EB0410A54901EBC00090EDEB
:10115000140AB5EEC00AF1EE10FA7CD1C4EB04100B
:1011600001EBC000D0ED0E1AB0EE611AC4EB041012
:1011700001EBC000D0ED091AF0EE610AC4EB0410D7
:1011800001EBC000D0ED041AB0EE610A20F06CFB58
:10119000C4EB0411924A02EBC10181F87400C4EB64
:1011A0000410114601EBC00090F8740000286CD1C7
:1011B000C4EB041001EBC00090ED090AC4EB04106D
:1011C00001EBC000D0ED040AB4EEE00AF1EE10FA33
:1011D00008DDC4EB041001EBC00000E0FCE090ED82
:1011E000090A0AE0C4EB04107D4901EBC00090ED50
:1011F000090ADFED7C0A30EE200AC4EB04107849BE
:1012000001EBC00080ED090AC4EB041001EBC00043
:1012100090ED0E0AC4EB041001EBC000D0ED040AFF
:10122000B4EEE00AF1EE10FA06DDC4EB041001EBB7
:10123000C00090ED0E0A0AE0C4EB0410684901EB0F
:10124000C00090ED0E0ADFED670A30EE200AC4EB15
:101250000410634900E082E001EBC00080ED0E0A5B
:10126000C4EB041001EBC00090ED0E0AC4EB0410B7
:1012700001EBC000D0ED040A30EE600AC4EB0410AC
:1012800001EBC00080ED140AA6E0C4EB0410544941
:1012900001EBC00090ED090AC4EB041001EBC000A3
:1012A000D0ED040AB4EEE00AF1EE10FA06D2C4EB77
:1012B000041001EBC00090ED090A0AE0C4EB041031
:1012C000474901EBC00090ED090ADFED460A30EE18
:1012D000600AC4EB0410424901EBC00080ED090A2A
:1012E000C4EB041001EBC00090ED0E0AC4EB041037
:1012F00001EBC000D0ED040AB4EEE00AF1EE10FA02
:1013000006D2C4EB041001EBC00090ED0E0A0AE017
:10131000C4EB0410324901EBC00090ED0E0ADFED82
:10132000310A30EE600AC4EB04102D4901EBC00015
:1013300080ED0E0AC4EB041001EBC00090ED040A2E
:10134000C4EB041001EBC000D0ED0E0A30EE600AD1
:10135000C4EB041001EBC00080ED140A3CE0C4EBC8
:1013600004101F4901EBC00090ED000AC4EB04100B
:1013700001EBC00080ED0A0AC4EB041001EBC000D1
:1013800090ED010AC4EB041001EBC00080ED0B0AE4
:10139000C4EB041001EBC00090F8740050B9C4EB2A
:1013A000041001EBC00090ED040ADFED0E0A30EEF0
:1013B000200A0AE0C4EB0410094901EBC00090EDDB
:1013C000040ADFED080A30EE600AC4EB0410044999
:1013D00001EBC00080ED0E0A002020B070BD0000BF
:1013E0002C720020D00FC94070B52DED028B82B059
:1013F00004462078012807D1607828B90120607060
:101400000020A0706060A060607807287ED006DCB5
:1014100056D2DFE800F0551356E8FCFBFA000B2823
:1014200075D006DC082873D0092872D00A2847D165
:10143000FDE30C286ED0A128F9D1FAE30120E07079
:10144000FE48D0F8840528B3FC48D0F88405401E37
:1014500000EBC001FA4800EBC10090ED000AF2EE8B
:101460000E0AB4EE600AF1EE10FA14D0F348D0F888
:101470008405401E00EBC001F14800EBC10090ED77
:10148000000AF3EE000AB4EE600AF1EE10FA02D0A0
:101490000120E07001E00020E070EA4890ED061ABB
:1014A000F3EE0E1A31EE611AF0EE410A90ED411A98
:1014B000B0EE410A0021012002F0FFFB0220607023
:1014C00005E2012008F0D6FD00287DD1DE4890F825
:1014D000D002002878D1D948D0F8840500EBC001AB
:1014E000D74800EBC100D0ED020AB0EE001A80EE42
:1014F000810AD248D0F8840500EBC001D04800EB47
:10150000C100D0ED030A30EEC00A04E0E0E1EEE3F2
:1015100090E2CEE2ECE3C948D0F8840500EBC001CC
:10152000C74800EBC100D0ED020A30EE200AC548E2
:10153000D0ED230AB0EE001AC0EE811A30EE610A37
:10154000D0ED3F0A90ED401A70EEC10A30EEC00AAD
:10155000BE4880ED000ABB48D0ED410AB0EE600AFB
:10156000BA48D0ED000A0021022002F0A6FBB348E1
:10157000D0F8840500EBC001B14800EBC10090ED4C
:10158000010AAE48D0F8840500EBC001AC4800EB7E
:10159000C100D0ED020A30EE600AB0EE001AC0EED3
:1015A000010AAB4890ED680A30EE600AB0EE408A5E
:1015B000A448D0ED410AB0EE600AF0EE480A0021DE
:1015C000084602F07AFB00E00CE0E078012807D141
:1015D00003219D48C0F8C41203209B4981F8BC0236
:1015E0000320607073E1022008F044FD00287DD1E3
:1015F00008F040FD0028FAD1934890F8BC0200287A
:10160000F5D18E48D0F8840502E037E12FE1EEE015
:1016100000EBC0018A4800EBC10090ED050ADFED48
:101620008D0AB4EEE00AF1EE10FA0BDD9FED890AA7
:101630008248D0F8840500EBC001814800EBC1006E
:1016400080ED050A7D48D0F8840500EBC0017C4898
:1016500000EBC10090ED060A7F4880ED000A774854
:10166000D0F8840500EBC001754800EBC10090ED97
:10167000050A7948D0ED000AB4EEE00AF1EE10FA5E
:1016800021D26E48D0F8840500EBC0016C4800EB15
:10169000C10090ED050ADFED710AB4EEE00AF1EE4B
:1016A00010FA11DB6548D0F8840500EBC0016448EE
:1016B00000EBC10090ED050AF3EE0E0A80EE201A51
:1016C000654880ED001A7BE05C48D0F8840500EBAB
:1016D000C0015B4800EBC10090ED050ADFED600A38
:1016E000B4EEE00AF1EE10FA13DD00E07EE05348BC
:1016F000D0F8840500EBC001514800EBC10090ED2B
:10170000050AF3EE040A80EE201A534880ED001A11
:1017100056E04A48D0F8840500EBC001484800EB89
:10172000C10090ED050AF3EE0E0AB4EEE00AF1EE08
:1017300010FA11DD4148D0F8840500EBC0014048A3
:1017400000EBC10090ED050AF2EE040A80EE201ACB
:10175000414880ED001A33E03848D0F8840500EBAA
:10176000C001374800EBC10090ED050AF2EE040A13
:10177000B4EEE00AF1EE10FA11DD3048D0F884053D
:1017800000EBC0012E4800EBC10090ED050AF1EE20
:10179000080A80EE201A304880ED001A10E0274831
:1017A000D0F8840500EBC001254800EBC10090EDA6
:1017B000050AF0EE000A80EE201A274880ED001A94
:1017C0006068401C60601F4890ED061AD0ED441A16
:1017D00031EE211AF0EE410A90ED411AB0EE410AC5
:1017E0000021012002F069FA042060701DE301204D
:1017F00008F040FC08BB022008F03CFCE8B91248A5
:1018000090F8BC02C8B90F4890ED061AD0ED441A02
:1018100031EE211AD4ED011AF8EEE11A0E4890EDDE
:10182000002A01EE821AF0EE410A064890ED211AD4
:10183000B0EE410A0021012014E017E0E863002027
:10184000802A0020E02800209C3F0020B8000020D3
:10185000E86700200000F042B40000200000C84209
:101860000000484202F029FA05206070DDE2012004
:1018700008F000FC08B906206070D6E2FE48D0F8F7
:10188000840500EBC001FD4800EBC10090ED011A9A
:10189000F948D0F8840500EBC001F84800EBC1001E
:1018A000D0ED021A31EE611AF548D0ED321A31EE60
:1018B000211AF0EE410A00F5FA5090ED201AB0EE30
:1018C000410A0021084602F0F8F907206070ACE2F6
:1018D000002008F0CFFB00287ED1E748D0F884052F
:1018E00000EBC001E54800EBC10090ED010AF0EE0D
:1018F000000A80EE201AE34890ED680A31EE000AF3
:10190000E148D0ED230AB0EE001AC0EE811A30EEA5
:10191000610AB0EE408A002004F0FCFFDB49086059
:10192000D948D0ED3F0A90ED401A70EEC10AD24876
:10193000D0F8840500EBC001D04800EBC10090ED69
:10194000031A70EEC10AB0EE600A022004F0E2FF52
:10195000CE494860C848D0F8840500EBC001C748AC
:1019600000EBC10090ED010AC348D0F8840500EBFC
:10197000C001C24800EBC100D0ED020A30EE600A9F
:10198000B0EE001AC0EE010ABE4890ED680A30EED3
:10199000800AB0EE408A002004F0BCFFBB4988609A
:1019A000B548D0F8840500EBC001B44800EBC10095
:1019B00090ED020AB0EE001AC0EE010AAE48D0F86F
:1019C000840500EBC001AD4800EBC10090ED030AB7
:1019D00030EE600AAC4800E02BE0D0ED230AB0EE18
:1019E000001AC0EE811A30EE210AD0ED3F0A90EDC8
:1019F000401A70EEC10A30EEC00AB0EE408A0220F2
:101A000004F088FFA149C8600846C0688968CDE92C
:101A100000109D48D0ED200AB0EE600A9B48C568D2
:101A20008668436802210268002004F05FFB0820FA
:101A30006070FAE1002008F00DFB94498968884243
:101A400036D1002008F016FB90BB022008F002FB04
:101A50008E49C96888422BD1022008F00BFB38BBA5
:101A60008548D0F8840500EBC001844800EBC10034
:101A700090ED011A8048D0F8840500EBC0017F4842
:101A800000EBC100D0ED021A31EE611A7C48D0EDB6
:101A9000321A31EEC11AF0EE410A7B4890ED201A5D
:101AA000B0EE410A0021084602F007F909206070F3
:101AB000BBE1002008F0DEFA00287DD16E48D0F8A6
:101AC000840500EBC0016D4800EBC100D0ED010AB8
:101AD000B0EE001A80EE810A6A48D0ED680A30EE56
:101AE000C00A6948D0ED230AB0EE001AC0EE811A90
:101AF00030EE210AB0EE408A002004F00BFF63496B
:101B000008616148D0ED3F0A90ED401A70EEC10ABD
:101B10005948D0F8840500EBC001584800EBC100DB
:101B200090ED031A70EEC10AB0EE600A022004F0D4
:101B3000F1FE564948615048D0F8840500EBC001D9
:101B40004E4800EBC10090ED010A4B48D0F88405E7
:101B500000EBC001494800EBC100D0ED020A70EE75
:101B6000600AB0EE001A80EE810A4648D0ED680A9D
:101B700030EEC00AB0EE408A002004F0CBFE4349AC
:101B800088613D48D0F8840500EBC0013B4800EB7C
:101B9000C10090ED020AB0EE001AC0EE010A36480C
:101BA000D0F8840500EBC001344800EBC10090ED93
:101BB000030A30EE600A00E038E02F48D0F88405D0
:101BC00000EBC0012D4800EBC100D0ED020A30EE61
:101BD000200A2D48D0ED230AB0EE001AC0EE811A7B
:101BE00030EE610AD0ED3F0A90ED401A70EEC10A66
:101BF00030EEC00AB0EE408A022004F08BFE23498A
:101C0000C8610846C0698969CDE900101E48D0ED59
:101C1000200AB0EE600A1D48C56986694369022141
:101C20000269002004F062FAA1206070FDE08FE0FC
:101C3000FFE7002008F00EFA14498969884229D18B
:101C4000002008F017FA28BB022008F003FA0F4919
:101C5000C96988427BD1022008F00CFAD0B994ED12
:101C6000010AB8EEC00A0A48D0ED000A20EE200AA8
:101C70000148D0F884050EE0E8630020802A0020A7
:101C8000A0090020E8670020E0280020586A002012
:101C9000B40000205BE000EBC001664800EBC1002F
:101CA000D0ED050AB4EEE00AF1EE10FA4DD260680C
:101CB000401C00EE100AB8EEC00A5F48D0ED000AE2
:101CC00020EE200A5D48D0F8840500EBC001594899
:101CD00000EBC100D0ED050AB4EEE00AF1EE10FA17
:101CE00007D86068401C6060042060702FE047E007
:101CF00092E0534890ED331A5048D0F8840500EB39
:101D0000C0014C4800EBC100D0ED051A31EE211A9C
:101D1000D4ED011AF8EEE11A474890ED002A01EEE1
:101D2000C21AF0EE410A474890ED211AB0EE410A7E
:101D30000021012001F0C1FF6068401C606022F0BA
:101D4000E7FF20610520607001E00A2060706CE010
:101D5000022008F08FF990B93A4890ED041AF3EE9A
:101D60000E1A31EE611AF0EE410A90ED411AB0EE12
:101D7000410A0021012001F0A0FF0B20607054E017
:101D8000012008F077F950B12D4890ED330A2D4825
:101D9000D0ED060AB4EEE00AF1EE10FA3BD827487F
:101DA000D0F8840509282CD22448D0F88405401C9A
:101DB00000EBC0011F4800EBC10090ED000AF2EEFD
:101DC0000E0AB4EE600AF1EE10FA22D01B48D0F8E9
:101DD0008405401C00EBC001164800EBC10090EDEB
:101DE000000AF3EE000AB4EE600AF1EE10FA10D029
:101DF00003211548C0F8D8120320134981F8D002F6
:101E000007E003211048C0F8D81203200E4981F8DA
:101E1000D0020C20607008E0012008F02BF918B9FE
:101E200014212046FEF720FD00BF00BF02B0BDEC2C
:101E3000028B70BD802A0020B4000020E8630020DF
:101E4000A0090020E02800209C3F002070B52DED67
:101E5000028B82B004462078012807D1607828B927
:101E6000012060700020A0706060A060607807288A
:101E70007ED006DC56D2DFE800F0551356D2FCFBCC
:101E8000FA000B2875D006DC082873D0092872D018
:101E90000A2847D1FDE30C286ED0A128F9D1DCE354
:101EA0000120E070FC48D0F8840528B3FA48D0F847
:101EB0008405401E00EBC001F84800EBC10090ED26
:101EC000000AF2EE0A0AB4EE600AF1EE10FA14D03B
:101ED000F148D0F88405401E00EBC001EF4800EB4C
:101EE000C10090ED000AF2EE0C0AB4EE600AF1EEC9
:101EF00010FA02D00120E07001E00020E070E84814
:101F000090ED041AF3EE0E1A31EE611AF0EE410A6A
:101F100090ED411AB0EE410A0021012001F0CDFE02
:101F200002206070A3E2012008F0A4F8002875D117
:101F3000D948D0F8840500EBC001D84800EBC100B7
:101F400090ED020AB0EE001AC0EE010AD248D0F8B5
:101F5000840500EBC001D14800EBC10090ED030AFD
:101F600030EE600ACC48D0F8840500EBC00104E0F4
:101F7000D4E1FDE37CE2BAE2FBE3C84800EBC10038
:101F8000D0ED020A30EE200AC548D0ED220AB0EEAC
:101F9000001AC0EE811A30EE610AD0ED3F0A30EE31
:101FA000C00AC04880ED000ABD48D0ED410AB0EE3D
:101FB000600ABC48D0ED000A0021022001F07DFE3D
:101FC000B548D0F8840500EBC001B44800EBC1006F
:101FD00090ED010AB048D0F8840500EBC001AF488D
:101FE00000EBC100D0ED020A30EE600AF0EE000A0C
:101FF00080EE201AAC4890ED670A30EE410AB0EE50
:10200000408AA748D0ED410AB0EE600AF0EE480AD7
:102010000021084601F051FE0320607027E20220F3
:1020200008F028F800287DD108F024F80028FAD11B
:102030009E4890F8D0020028F5D19748D0F8840542
:1020400000EBC001954800EBC10090ED050ADFED03
:10205000980AB4EEE00AF1EE10FA0FDD9FED940A53
:102060008D48D0F8840500EBC0018C4802E027E1E0
:10207000EFE0D2E000EBC10080ED050A8648D0F821
:10208000840500EBC001854800EBC10090ED060A15
:10209000884880ED000A8048D0F8840500EBC00134
:1020A0007E4800EBC10090ED050A8248D0ED000AA1
:1020B000B4EEE00AF1EE10FA21D27748D0F88405A8
:1020C00000EBC001754800EBC10090ED050ADFEDA3
:1020D0007A0AB4EEE00AF1EE10FA11DB6E48D0F89D
:1020E000840500EBC0016D4800EBC10090ED050ACE
:1020F000F3EE0E0A80EE201A6E4880ED001A7BE0A7
:102100006548D0F8840500EBC001644800EBC100CD
:1021100090ED050ADFED690AB4EEE00AF1EE10FA7F
:1021200013DD00E078E05C48D0F8840500EBC001E6
:102130005A4800EBC10090ED050AF3EE040A80EE68
:10214000201A5C4880ED001A56E05348D0F8840508
:1021500000EBC001514800EBC10090ED050AF3EE21
:102160000E0AB4EEE00AF1EE10FA11DD4A48D0F89A
:10217000840500EBC001494800EBC10090ED050A61
:10218000F2EE040A80EE201A4A4880ED001A33E08D
:102190004148D0F8840500EBC001404800EBC10085
:1021A00090ED050AF2EE040AB4EEE00AF1EE10FA40
:1021B00011DD3948D0F8840500EBC001374800EB49
:1021C000C10090ED050AF1EE080A80EE201A3948A8
:1021D00080ED001A10E03048D0F8840500EBC00113
:1021E0002E4800EBC10090ED050AF0EE000A80EEEB
:1021F000201A304880ED001A6068401C6060E0786A
:10220000012807D103212948C0F8C4120220274918
:1022100081F8BC020420607010E3002007F02AFF60
:10222000B0B9224890F8BC0290B91D4890ED041A4C
:10223000D0ED441A31EE211AF0EE410A90ED411A28
:10224000B0EE410A0021012001F037FD0520607049
:10225000F4E2012007F00EFFE0B9114890ED041AF6
:10226000D0ED441A31EE211AD4ED011AF8EEE11A3C
:10227000104890ED002A01EE821AF0EE410A08485B
:1022800090ED211AB0EE410A0021012001F015FD68
:1022900006206070D2E20000E8630020802A00205F
:1022A000E0280020A8000020E86700209C3F0020D4
:1022B0000000F042A40000200000C8420000484294
:1022C000012007F0D7FE40BBFE48D0F8840500EBA4
:1022D000C001FD4800EBC10090ED011AF948D0F8AB
:1022E000840500EBC001F84800EBC100D0ED021AF4
:1022F00031EE611AF548D0ED321A31EE211AF0EEC6
:10230000410A00F5FA5090ED201AB0EE410A002182
:10231000084601F0D2FC072060708FE2002007F031
:10232000A9FE00287ED1E748D0F8840500EBC00163
:10233000E54800EBC100D0ED010AB0EE001A80EED6
:10234000810AE348D0ED670A30EE200AE148D0ED7B
:10235000220AB0EE001AC0EE811A30EE610AB0EE29
:10236000408A002004F0D6FADB490860D948D0ED55
:102370003F0AD448D0F8840500EBC001D24800EBF6
:10238000C10090ED031A70EEC10AB0EE600A02209F
:1023900004F0C0FAD0494860CA48D0F8840500EB80
:1023A000C001C94800EBC10090ED010AC548D0F852
:1023B000840500EBC001C44800EBC100D0ED020A67
:1023C00030EE600AB0EE001AC0EE010AC04890ED8F
:1023D000670A30EE800AB0EE408A002004F09AFAD4
:1023E000BD498860B748D0F8840500EBC001B64805
:1023F00000EBC10090ED020AF0EE000A80EE201A18
:10240000B048D0F8840500EBC001AF4800EBC10034
:1024100090ED030A30EE410AAE48D0ED220AB0EE4C
:10242000001A00E023E0C0EE811A30EE210AD0ED60
:102430003F0A30EEC00AB0EE408A022004F06AFA89
:10244000A549C8600846C0688968CDE90010A14860
:10245000D0ED200AB0EE600A9F48C56886684368E0
:1024600002210268002003F041FE08206070E5E1CF
:10247000002007F0EFFD98498968884236D1002096
:1024800007F0F8FD90BB022007F0E4FD9249C9680F
:1024900088422BD1022007F0EDFD38BB8948D0F8E7
:1024A000840500EBC001884800EBC10090ED011AE3
:1024B0008448D0F8840500EBC001834800EBC100DC
:1024C000D0ED021A31EE611A8048D0ED321A31EEA9
:1024D000C11AF0EE410A7F4890ED201AB0EE410A91
:1024E0000021084601F0E9FB09206070A6E1002008
:1024F00007F0C0FD00287CD17248D0F8840500EBBD
:10250000C001714800EBC10090ED010AB0EE001A65
:10251000C0EE010A6E4890ED670A30EE600A6D4821
:10252000D0ED220AB0EE001AC0EE811A30EE210A78
:10253000B0EE408A002004F0EDF967490861654873
:10254000D0ED3F0A5F48D0F8840500EBC0015E483B
:1025500000EBC10090ED031A70EEC10AB0EE600A04
:10256000022004F0D7F95C4948615648D0F8840548
:1025700000EBC001544800EBC10090ED010A514846
:10258000D0F8840500EBC0014F4800EBC100D0ED4E
:10259000020A30EE600AB0EE001AC0EE010A4C48A2
:1025A00090ED670A30EE600AB0EE408A002004F039
:1025B000B1F9494988614348D0F8840500EBC0016E
:1025C000414800EBC100D0ED020AB0EE001A80EEE7
:1025D000810A3C48D0F8840500EBC0013A4800EB82
:1025E000C100D0ED030A30EEC00A3648D0F88405A9
:1025F00000E031E000EBC001334800EBC100D0ED5A
:10260000020A30EE200A3348D0ED220AB0EE001A5A
:10261000C0EE811A30EE610AD0ED3F0A30EEC00AFA
:10262000B0EE408A022004F075F92B49C8610846D3
:10263000C0698969CDE900102648D0ED200AB0EEC6
:10264000600A2548C569866943690221026900203C
:1026500003F04CFDA1206070F0E0002007F0FAFCD0
:102660001D49896988423BD1002007F003FDB8BBB2
:10267000022007F0EFFC1849C96988427ED1022088
:1026800007F0F8FC60BB94ED010AB8EEC00A1348ED
:1026900000E074E0D0ED000A20EE200A0948D0F8EE
:1026A000840500EBC001084800EBC100D0ED050A2D
:1026B000B4EEE00AF1EE10FA5ED26068401C00EE63
:1026C000100A0EE0E8630020802A0020A009002004
:1026D000E8670020E0280020586A0020A4000020BD
:1026E0004CE0B8EEC00A5848D0ED000A20EE200AAF
:1026F0005648D0F8840500EBC001554800EBC100F6
:10270000D0ED050AB4EEE00AF1EE10FA05D86068E3
:10271000401C60600520607030E04E4890ED331A38
:102720004A48D0F8840500EBC001494800EBC100DD
:10273000D0ED051A31EE211AD4ED011AF8EEE11AA6
:10274000414890ED002A01EEC21AF0EE410A4248DB
:1027500090ED211AB0EE410A0021012001F0ADFAFE
:102760006068401C606022F0D3FA2061062001E01E
:102770001DE05EE0607001E00A2060705EE0022013
:1027800007F078FC90B9344890ED041AF3EE0E1A75
:1027900031EE611AF0EE410A90ED411AB0EE410AB5
:1027A0000021012001F089FA0B20607046E0012031
:1027B00007F060FC88BB2548D0F8840509282DD295
:1027C0002248D0F88405401C00EBC001204800EBF3
:1027D000C10090ED000AF2EE0A0AB4EE600AF1EED2
:1027E00010FA23D01948D0F88405401C00EBC00132
:1027F000174800EBC10090ED000AF2EE0C0AB4EEAF
:10280000600AF1EE10FA11D003211448C0F8D81272
:102810000220124981F8D00208E009E003210F48A4
:10282000C0F8D81202200D4981F8D0020C20607047
:1028300004E014212046FEF717F800BF00BF02B0E5
:10284000BDEC028B70BD0000A4000020E8630020F6
:10285000802A0020A0090020E02800209C3F0020C2
:1028600070B52DED048B0446FD48D0F8900001288A
:102870000CD1FC4890ED0D0AF94880ED420AF94868
:1028800090ED0C0AF64880ED430A08E0F44890ED1C
:10289000460A80ED420A90ED470A80ED430AF2486D
:1028A000D0F8E803022803D10120F04981F8C800DC
:1028B000207801282BD1607848BB002507E0EC493F
:1028C00011F8250001211EF0C5F8681CC5B2042DC1
:1028D000F5DB002507E0E74911F8250001211EF08E
:1028E000B9F8681CC5B2052DF5DB1421E248FDF7E7
:1028F000BBFF0021DC48C0F8CC1BE048C0F88415C1
:102900000020A070A120607022F002FA206160789F
:10291000052870D008DC012824D002286CD00328B8
:102920006BD0042816D158E1062867D0072870D04C
:10293000A12802D0A228F5D10DE0C948D0F8900016
:10294000012805D1C94981F84803A220607001E03F
:1029500001206070B5E1C54890F8480308B901202E
:102960006070AEE1C548D0F884050A2870D22021F5
:10297000BC481030FDF756FF0121C048D0F884252F
:10298000B848103020F81210BC48D0F8840500EB8D
:10299000C001BB4800EBC10090ED000ABCEEC00ACC
:1029A000B84880ED000A006813286BD2DFE800F019
:1029B0006A0A0F14191E272C32373C41464B5156D8
:1029C0005B6065000120A94981F87C015BE0012082
:1029D000A64981F8A40156E00120A44981F890019C
:1029E00051E00120A14981F8B8014CE001209F4944
:1029F00081F8CC0147E0F3E04CE0DFE0F1E00120BA
:102A00009A4981F8E0013EE00120984981F81801D7
:102A100039E0F9E00120954981F8080233E001200E
:102A2000924981F830022EE00120904981F82C0172
:102A300029E001208D4981F81C0224E001208B4906
:102A400081F844021FE00120884981F854011AE00E
:102A50001DE00120854981F8580214E001208349D6
:102A600081F868010FE00120804981F86C020AE0DA
:102A700001207E4981F80C0305E001207B4981F8A3
:102A8000E80300E000BF00BF0220607001E0042006
:102A9000607016E17B480068132874D2DFE800F00C
:102AA000890A11181F262D343B424950575E656C28
:102AB000747B82006D4890F87C0108B90320607037
:102AC0007AE06A4890F8A40108B90320607073E0C6
:102AD000664890F8900108B9032060706CE0634884
:102AE00090F8B80108B90320607065E05F4890F87D
:102AF000CC0108B9032060705EE05C4890F8E0010A
:102B000008B90320607057E0584890F8180108B9D8
:102B10000320607050E0554890F8080208B903207F
:102B2000607049E0514890F8300208B903206070A5
:102B300042E04E4890F82C0108B9032060703BE059
:102B40004A4890F81C0208B90320607034E04748F6
:102B500090F8440208B9032060702DE0434890F8D3
:102B6000540108B90320607026E0404890F85802EC
:102B700008B9032060701FE03C4890F8680108B96C
:102B80000320607018E014E0384890F86C0208B92F
:102B90000320607010E0354890F80C0308B903205A
:102BA000607009E0314890F8E80308B903206070CC
:102BB00002E00320607000BF00BF82E02A48D0F826
:102BC000E803022808D12D48D0F88405401C2B4981
:102BD000C1F884050120607073E00620607070E029
:102BE0006FE0002007F046FA68B9012007F042FACA
:102BF00048B9032007F03EFA28B901201B4981F8A3
:102C0000A000072060705CE0184890F8A00030BB7E
:102C1000012114201DF01EFF00211848C0F8841562
:102C200001211148C0F8B81B22F072F82169401A3E
:102C30000A21B0FBF1F6304634F0ABF841EC190B49
:102C40009FED110B53EC102B33F034FF41EC180BBC
:102C500033F04AFE01460248C0F8801418E02FE025
:102C6000E0280020880D0020A00900209C3F0020C3
:102C70005400002040000020D0420020E8630020E3
:102C8000802A0020DC00002000000000004CED4005
:102C900000F58F6090ED030AD0ED020A30EE200AB5
:102CA00080ED030AA0F58F60D0F87814491CC0F8B5
:102CB000781420210548FDF7B5FD002020706070D4
:102CC00000BF00BFBDEC048B70BD0000980D00205C
:102CD00070B505460C46012C00DD70BD2846FDF799
:102CE000B5FFA0420ED1284601F0DCF901212846AB
:102CF00001F0C4F90720C5EBC501034A02EB01113D
:102D000081F8640000BFE8E7108B0020C0EBC00131
:102D1000074A02EB0111B1F8601039B90021C0EB8C
:102D2000C002034B03EB021282F8641070470000EC
:102D3000108B002070470000C0EBC001074A02EB77
:102D40000111B1F8601039B90021C0EBC002034B8A
:102D500003EB021282F8641070470000108B002011
:102D60007047000010B500204F49087096E04E48AB
:102D70000078C0EBC0004D4901EB0010B0F86000D6
:102D800048B14B4848490978405C20B9012148487E
:102D9000454A12788154464843490978405C0128E5
:102DA00004D0022847D0032872D171E03E48007851
:102DB00003F0E0FD3C490978C1EBC1013B4A02EB5D
:102DC0000111C86538480078C0EBC00002EB001064
:102DD000C16D354800781EF017F8334800781DF0B3
:102DE000B5FF31490978C1EBC101304A02EB01114D
:102DF00091F96C102C4A1278C2EBC2022B4B03EBF8
:102E00000212526D00FB012027490978C1EBC10174
:102E10001A4602EB01118865234800781DF0BEFFB9
:102E200040B9234820490978405C401C20491E4A8B
:102E3000127888542CE01C4800781DF087FF1A494E
:102E40000978C1EBC101194A02EB011191F96C102B
:102E5000154A1278C2EBC202144B03EB0212526DF8
:102E600000FB012010490978C1EBC1011A4602EBB1
:102E70000111886500200C490978C1EBC10102EB02
:102E80000111A1F860000A49074A1278885400BF6E
:102E900000BF05480078401C0349087002480078CC
:102EA0001028FFF664AF10BDE4070020108B00204F
:102EB000109200207FB504460D46C4EBC400624961
:102EC00001EB0010B0F8600000287CD1C4EBC40016
:102ED00001EB0010806DC4EBC4015B4A02EB0111F1
:102EE0004865C4EBC400114601EB00104068C4EB18
:102EF000C40102EB0111C865C4EBC40002EB001071
:102F0000C16D20461DF080FF002D49DD01212046C6
:102F100000F010FFC4EBC4004B4A02EB0010416804
:102F200020461DF071FF294620461EF025F801209D
:102F3000C4EBC401444A02EB0111A1F86000C4EBE8
:102F4000C400114601EB00104069C4EBC40102EB60
:102F500001118968C4EBC4023B4B03EB0212126DF2
:102F6000C4EBC403384E06EB0313DB69CDE9003232
:102F7000CDE90210C4EBC40006EB00100369C4EBFA
:102F8000C40006EB00104268C4EBC40006EB00105E
:102F900090F82010204604F047FB002004B070BDDC
:102FA000002D4BDA4FF0FF31204600F0C3FEC4EB9A
:102FB000C400254A02EB0010416820461DF024FFA2
:102FC0006942204600E03BE01DF0D6FF0120C4EB43
:102FD000C4011D4A02EB0111A1F86000C4EBC4005A
:102FE000114601EB00104069C4EBC40102EB011172
:102FF0008968C4EBC402144B03EB0212126DC4EBDC
:10300000C403114E06EB0313DB69CDE90032CDE9B1
:103010000210C4EBC40006EB00100369C4EBC4004B
:1030200006EB00104268C4EBC40006EB001090F8F9
:103030002010204604F0F8FA0020AFE70020ADE7AA
:103040004FF0FF30AAE70000108B002010B50446B7
:10305000C4EBC400FE4901EB001090F864000528A1
:1030600013D1C4EBC40001EB0010B0F8620060B9EA
:103070000120C4EBC401F64A02EB0111A1F8620081
:1030800021F040FEF34941F82400C4EBC400F049AC
:1030900001EB001090F8640005282AD1C4EBC400AD
:1030A00001EB0010406B20B321F02CFEE94951F8F0
:1030B0002410401AC4EBC401E54A02EB0111496B2C
:1030C000884216D90221204600F0D8FF204600F0A1
:1030D000E9FF0020C4EBC401DD4A02EB0111A1F8B5
:1030E00062000720C4EBC40102EB011181F8640007
:1030F00010BDC4EBC400D64901EB0010B0F862006B
:103100001C287AD2DFE800F0790E83B0C7FDFCFB03
:10311000FAF9F8F7F6F5F4F3F2F1F0EFEEEDECEB87
:10312000EAE9E8E7C4EBC400C94901EB001090F8F4
:10313000380000F00100C8B3C4EBC40001EB00107C
:1031400090F83E0088B1C4EBC401C14A02EB011102
:1031500091F8440000F004FFC4EBC401BC4A02EB48
:10316000011191F84210884221D0C4EBC400B84943
:1031700001EB0010406AC4EBC401B54A02EB011137
:1031800008614FF010412046FFF794FEC4EBC400E5
:10319000AF4901EB0010B0F86200401CC4EBC40161
:1031A000AB4A02EB0111A1F862002FE0FFE7C4EB8C
:1031B000C400A74901EB001090F8380000F00800A7
:1031C00040B11020C4EBC401A14A02EB0111A1F8E7
:1031D00062001BE0C4EBC4009D4901EB001090F8B5
:1031E000380000F0100048B11620C4EBC401984A22
:1031F00002EB0111A1F8620008E009E20420C4EB2F
:10320000C401934A02EB0111A1F8620000E2C4EB91
:10321000C4008F4901EB001090F83E0018B3C4EBD6
:10322000C4018B4A02EB011191F8440000F098FEB2
:10323000C4EBC401864A02EB011191F842108842A6
:1032400011D1204600F02EFFC4EBC400804901EBF1
:103250000010B0F86200401CC4EBC4017C4A02EBD1
:103260000111A1F86200D3E1C4EBC400784901EB7D
:103270000010B0F8600068B9C4EBC40001EB0010A6
:10328000B0F86200401CC4EBC401714A02EB0111AA
:10329000A1F86200BCE1C4EBC4006D4901EB001071
:1032A00090F8380000F0020060B3C4EBC40001EBFA
:1032B000001090F83D0030B3C4EBC401644A02EB47
:1032C000011191F8430000F04BFEC4EBC401604AC9
:1032D00002EB011118E0FDE3E4E3B7E38CE36AE3FA
:1032E0001CE30AE3E4E2B7E287E265E217E2F8E111
:1032F000E0E1A5E18DE160E115E1FDE0D0E075E000
:103300005DE02FE025E003E091F84110884220D0F5
:10331000C4EBC4004E4901EB0010406AC4EBC40189
:103320004B4A02EB011108614FF0E0412046FFF7E4
:10333000C1FDC4EBC400464901EB0010B0F86200C7
:10334000401CC4EBC401424A02EB0111A1F8620027
:1033500007E00720C4EBC4013D4A02EB0111A1F8CC
:103360006200D7E3C4EBC400394901EB001090F8C8
:103370003D0018B3C4EBC401354A02EB011191F8CA
:10338000430000F0EDFDC4EBC401314A02EB011132
:1033900091F84110884211D1204600F083FEC4EB21
:1033A000C4002B4901EB0010B0F86200401CC4EBD4
:1033B000C401274A02EB0111A1F86200AAE3C4EBA1
:1033C000C400234901EB0010B0F8600068B9C4EBF9
:1033D000C40001EB0010B0F86200401CC4EBC40153
:1033E0001B4A02EB0111A1F8620093E3C4EBC40095
:1033F000174901EB001090F8380000F0010030B3DD
:10340000C4EBC40001EB001090F8380000F002009B
:10341000E8B9C4EBC40001EB0010406AC4EBC4017E
:103420000B4A02EB011108614FF0E0412046FFF723
:1034300041FDC4EBC400064901EB0010B0F8620086
:10344000401CC4EBC401024A02EB011104E006E097
:10345000108B002020920020A1F862001FE0C4EB36
:10346000C400FB4901EB0010406AC4EBC401F84AF8
:1034700002EB011108614FF010412046FFF71AFDE1
:10348000C4EBC400F24901EB0010B0F86200401C2C
:10349000C4EBC401EE4A02EB0111A1F8620039E36A
:1034A000C4EBC400EA4901EB001090F8300010B3FF
:1034B000C4EBC401E64A02EB0111488E00F050FD56
:1034C000C4EBC401E24A02EB011191F831108842C9
:1034D00011D1204600F0E6FDC4EBC400DC4901EB4D
:1034E0000010B0F86200401CC4EBC401D84A02EBE3
:1034F0000111A1F862000DE3C4EBC400D44901EB53
:103500000010B0F8600068B9C4EBC40001EB001013
:10351000B0F86200401CC4EBC401CD4A02EB0111BB
:10352000A1F86200F6E2C4EBC400C94901EB001047
:1035300090F8300080B3C4EBC401C54A02EB01111E
:10354000488E00F00DFDC4EBC401C14A02EB01112D
:1035500091F83110884220D1C4EBC400114601EB30
:103560000010806AC4EBC40102EB011108614FF046
:10357000E0412046FFF79EFCC4EBC400B44901EBD8
:103580000010B0F86200401CC4EBC401B04A02EB6A
:103590000111A1F862000FE0FFE7C4EBC400AC49E1
:1035A00001EB0010B0F86200401CC4EBC401A84A53
:1035B00002EB0111A1F86200ACE2C4EBC400A44923
:1035C00001EB001090F8300080B1C4EBC401A04AB8
:1035D00002EB0111488E00F0C3FCC4EBC4019C4A0D
:1035E00002EB011191F83110884211D0204600F011
:1035F00059FDC4EBC400964901EB0010B0F862001D
:10360000401CC4EBC401924A02EB0111A1F8620014
:1036100080E2C4EBC4008E4901EB0010B0F86000FA
:1036200068B9C4EBC40001EB0010B0F86200401CA4
:10363000C4EBC401864A02EB0111A1F8620069E201
:10364000C4EBC400824901EB0010C06A10B3C4EBA4
:10365000C40001EB00100069C4EBC4017C4A02EB1A
:1036600001110861C4EBC40002EB0010C16A2046DE
:10367000FFF720FCC4EBC400754901EB0010B0F863
:103680006200401CC4EBC401714A02EB0111A1F8B5
:1036900062000EE0C4EBC4006D4901EB0010B0F80D
:1036A0006200401CC4EBC401694A02EB0111A1F89D
:1036B00062002FE2C4EBC400654901EB0010B0F8D2
:1036C000600068B9C4EBC40001EB0010B0F8620000
:1036D000401CC4EBC4015E4A02EB0111A1F8620078
:1036E00018E20020C4EBC401594A02EB01118865BD
:1036F000C4EBC40102EB01110865C4EBC40102EB89
:10370000011181F86400204600F08AFC0020C4EB1F
:10371000C4014F4A02EB0111A1F86200FAE1C4EBC7
:10372000C4004B4901EB001090F8300080B1C4EBAD
:10373000C401474A02EB0111488E00F011FCC4EBB2
:10374000C401434A02EB011191F83110884219D0AB
:10375000C4EBC4003E4901EB0010406AC4EBC40155
:103760003B4A02EB011108614FF0E0412046FFF7B0
:10377000A1FB1120C4EBC401354A02EB0111A1F8F1
:10378000620018E0C4EBC400314901EB0010406A4C
:10379000C4EBC4012E4A02EB011108614FF0E04175
:1037A0002046FFF787FB1220C4EBC401284A02EB36
:1037B0000111A1F86200ADE1C4EBC400244901EBA2
:1037C000001090F83000B8B1C4EBC401204A02EBFD
:1037D0000111488E00F0C4FBC4EBC4011C4A02EB8B
:1037E000011191F83110884206D11220C4EBC401B6
:1037F00002EB0111A1F862008CE1C4EBC400144992
:1038000001EB001090F8300080B1C4EBC401104A05
:1038100002EB0111488E00F0A3FBC4EBC4010C4A7B
:1038200002EB011191F8311088420FD0204600F0D0
:1038300039FC21F067FA074941F824001320C4EB52
:10384000C401034A02EB0111A1F8620062E1000029
:10385000108B002060920020C4EBC400AF4901EB44
:103860000010B0F8600010BB21F04CFAAC4951F8E0
:103870002410401A40F63401884218D3C4EBC40027
:10388000A64901EB0010806AC4EBC401A34A02EB15
:10389000011108614FF010412046FFF70BFB142087
:1038A000C4EBC4019D4A02EB0111A1F8620031E1B1
:1038B000C4EBC400994901EB001090F83000D8B176
:1038C000C4EBC401954A02EB0111488E00F048FB9D
:1038D000C4EBC401914A02EB011191F83110884206
:1038E0000AD1204600F0DEFB1520C4EBC4018B4A50
:1038F00002EB0111A1F862000CE1C4EBC40087499E
:1039000001EB0010B0F8600038B90F20C4EBC4011F
:10391000824A02EB0111A1F86200FBE0C4EBC40093
:103920007E4901EB001090F8300080B1C4EBC40177
:103930007A4A02EB0111488E00F012FBC4EBC4017D
:10394000764A02EB011191F83110884219D0C4EB8C
:10395000C400724901EB0010406AC4EBC4016F4A15
:1039600002EB011108614FF010412046FFF7A2FA67
:103970001720C4EBC401694A02EB0111A1F86200EF
:1039800018E0C4EBC400654901EB0010406AC4EBC9
:10399000C401624A02EB011108614FF01041204658
:1039A000FFF788FA1820C4EBC4015C4A02EB01114E
:1039B000A1F86200AEE0C4EBC400584901EB00106E
:1039C00090F83000B8B1C4EBC401544A02EB0111C5
:1039D000488E00F0C5FAC4EBC401504A02EB011155
:1039E00091F83110884206D11820C4EBC40102EBD3
:1039F0000111A1F862008DE0C4EBC400474901EB5E
:103A0000001090F8300080B1C4EBC401434A02EBCF
:103A10000111488E00F0A4FAC4EBC4013F4A02EB46
:103A2000011191F8311088420FD0204600F03AFB86
:103A300021F068F93A4941F824001920C4EBC40187
:103A4000364A02EB0111A1F8620063E0C4EBC40046
:103A5000324901EB0010B0F8600010BB21F052F9C0
:103A60002F4951F82410401A40F63401884218D3E7
:103A7000C4EBC400294901EB0010806AC4EBC40107
:103A8000264A02EB011108614FF0E0412046FFF7A2
:103A900011FA1A20C4EBC401204A02EB0111A1F86B
:103AA000620037E0C4EBC4001C4901EB001090F841
:103AB0003000E8B1C4EBC401184A02EB0111488E92
:103AC00000F04EFAC4EBC401144A02EB011191F864
:103AD000311000E00DE088420AD1204600F0E2FA01
:103AE0001B20C4EBC4010D4A02EB0111A1F86200D6
:103AF00010E0C4EBC400094901EB0010B0F860000D
:103B000038B90F20C4EBC401044A02EB0111A1F83B
:103B1000620000BF00BF00BFFFF7EABA108B0020B1
:103B20006092002010B50446C4EBC400314901EB9B
:103B3000001090F86C00012828D1C4EBC40001EB00
:103B4000001090F83D0008B3C4EBC401294A02EB11
:103B5000011191F8430000F003FAC4EBC401254AB7
:103B600002EB011191F8411088420FD14FF480719E
:103B7000204600F083FA204600F094FA0720C4EBB8
:103B8000C4011C4A02EB011181F86400C4EBC400BB
:103B9000184901EB001090F96C00B0F1FF3F28D1FB
:103BA000C4EBC40001EB001090F83E0008B3C4EB76
:103BB000C401104A02EB011191F8440000F0D0F961
:103BC000C4EBC4010B4A02EB011191F84210884288
:103BD0000FD14FF48051204600F050FA204600F0FB
:103BE00061FA0720C4EBC401024A02EB011181F81B
:103BF000640010BD108B002010B50446C4EBC40057
:103C00002C4901EB001090F83F0020B3C4EBC40036
:103C100001EB001090F86C0001281CD1C4EBC4002B
:103C200001EB0010806DC4EBC401224A02EB0111CC
:103C3000896C88420FDD4FF40071204600F01EFAB7
:103C4000204600F02FFA0720C4EBC401194A02EB0A
:103C5000011181F86400C4EBC400164901EB0010A7
:103C600090F8400028B3C4EBC40001EB001090F9B9
:103C70006C00B0F1FF3F1CD1C4EBC40001EB00109D
:103C8000806DC4EBC4010B4A02EB0111C96C884280
:103C90000FDA4FF40051204600F0F0F9204600F012
:103CA00001FA0720C4EBC401024A02EB011181F8BA
:103CB000640010BD108B0020704770B52DED028B95
:103CC00004460D46F0EE408AB0EE608A082C02DB16
:103CD000BDEC028B70BDB0EE680A204600F042F8E1
:103CE00035B1012D0FD0032D18D0042D1ED119E0B0
:103CF000B0EE480A204602F00DFE0646E0B231461C
:103D000006F058FA12E0B0EE480A204602F002FE31
:103D10000646E0B2314606F085FA07E0E0B206F06A
:103D2000B9F903E0E0B206F015FD00BF00BF00BF27
:103D3000CEE7000070B505460C46C5EBC500084946
:103D400001EB001080F86C40002C04DD01212846B6
:103D500003F07EFD03E00021284603F079FD70BDED
:103D6000108B0020F0B52DED068B87B00446B0EE29
:103D7000408AB2EE040AB4EEC08AF1EE10FA04DC16
:103D8000B5EEC08AF1EE10FA03D89FED6D0AB0EEE1
:103D9000408A04EB84016B4850F8310000EE100AB1
:103DA000F8EEC00A9FED681A80EE810AB4EEC80AE8
:103DB000F1EE10FA14DB04EB8402624951F8320090
:103DC00032F0D0FF41EC1A0B9FED600B53EC102B3F
:103DD00032F0BCFD41EC190B32F086FD08EE100A02
:103DE00004EB8401574800EBC10090ED040AF8EEA3
:103DF000C00A9FED551A80EE810AB4EEC80AF1EEB2
:103E000010FA15DB04EB84024E4901EBC20108698C
:103E100032F0A8FF41EC1A0B9FED4C0B53EC102B2A
:103E200032F094FD41EC190B32F05EFD08EE100A01
:103E300004EB8401434850F831004FF47A71484351
:103E4000444951F83410484300EE100AF8EE400A95
:103E5000404800EBC40090ED011A80EE810ADFEDCE
:103E60003E0A80EE201ABCEEC10A10EE105A9FEDF9
:103E70003B0A68EE000A374850F8340000EE100A9A
:103E8000B8EE400A60EE800A324800EBC40090EDC4
:103E9000011A80EE810ADFED300A80EE201ABCEEB6
:103EA000C10A10EE106A04EB8401264800EBC10041
:103EB00000694FF47A714843264951F83410484359
:103EC00000EE100AF8EE400A224800EBC40090ED24
:103ED000011A80EE810ADFED200A80EE201AFCEE46
:103EE000C18A002204EB8401164800EBC10004EBF8
:103EF0008407C169134800EBC700806903AB07C39F
:103F000004EB84010F4800EBC1000692406904EB0A
:103F100084020C4901EBC201C9680091CDED018A10
:103F200004EB8403074901EBC3010290E0B233467E
:103F30004A68294606F03AFB07B0BDEC068BF0BD97
:103F4000CDCCCC3D401900200000C8427B14AE47C8
:103F5000E17A843F102100200000704200007A4482
:103F600010B50446802C04D2E0B211F0B9FCC0B206
:103F700010BD802C08D3902C06D2A4F18001C8B2C9
:103F8000FCF764FEC0B2F3E7902C08D3A02C06D255
:103F9000A4F19001C8B217F029F9C0B2E8E7C02C2B
:103FA00009D3D02C07D2A4F1C001C8B2002105F07A
:103FB000A1F9C0B2DCE7D02C09D3E02C07D2A4F1E0
:103FC000D001C8B2012105F095F9C0B2D0E70020B8
:103FD000CEE7000000201BE04FF4FA7200EB8003F4
:103FE0000D4901EBC3018A61002200EB80030A49FD
:103FF00001EBC301CA6140F6C412084941F8302000
:10400000B2EE040A01EBC00181ED010A411CC8B205
:104010000828E1DB70470000401900201021002033
:10402000C0EBC001104A02EB01110968C0EBC002ED
:104030000D4B03EB02125160C0EBC0011A4602EBBC
:104040000111C968C0EBC00203EB02121161C0EBA1
:10405000C0011A4602EB01118969C0EBC00203EBF3
:104060000212D16170470000108B00200146142914
:1040700001D2142070470846FCE7000010B5102854
:104080000CDAC0EBC002064B03EB0212926E0A433D
:10409000C0EBC003024C04EB03139A6610BD000092
:1040A000108B002010B5044620461CF09FFF10BD69
:1040B000C0EBC001074A02EB0111B1F8601039B939
:1040C0000021C0EBC002034B03EB021282F8641024
:1040D00070470000108B0020C0EBC001074A02EBC4
:1040E0000111B1F8601039B90021C0EBC002034BD7
:1040F00003EB021282F8641070470000108B00205E
:10410000704770B586B006460D460024DDE004EB2E
:10411000840035F8200030B101282AD002284ED082
:10412000032825D185E0002002900390049005909B
:10413000009004EB840105EB810101900B7B04EB03
:10414000840105EB81018A7AE0B2012106F016F9BB
:1041500004EB840006EBC000006A04EB840106EB6C
:10416000C1010090E0B200234A6A194606F0F4F952
:1041700099E000200290039004900590009004EBD9
:10418000840105EB810101900B7B04EB840105EBBD
:1041900081018A7AE0B2012106F0F0F804EB840094
:1041A00006EBC000006A04EB840106EBC10100903D
:1041B000E0B201234A6A194606F0CEF973E004EB37
:1041C000840005EB8000007A04EB840105EB81019B
:1041D0008979012304EB840205EB82021279CDE98F
:1041E0000223CDE9041004EB840005EB8000807805
:1041F00004EB840105EB8101CDE900300B7B04EB7E
:10420000840105EB81018A7AE0B2012106F0B6F85B
:1042100004EB840006EBC000006A04EB840106EBAB
:10422000C1010090E0B200234A6A194606F094F9F1
:1042300039E004EB840005EB8000007A04EB840194
:1042400005EB81018979012304EB840205EB8202ED
:104250001279CDE90223CDE9041004EB840005EBCB
:104260008000807804EB840105EB8101CDE900300A
:104270000B7B04EB840105EB81018A7AE0B201211A
:1042800006F07CF804EB840006EBC000006A04EB47
:10429000840106EBC1010090E0B201234A6A19468D
:1042A00006F05AF900BF00BF04EB840205EB82025E
:1042B000917BE0B206F0CEF804EB840205EB8202BB
:1042C000117CE0B206F048F8641C082CFFF61FAF22
:1042D00006B070BD2DE9F041C4B004460E46154647
:1042E000984600274FF4887220496846FCF768FA20
:1042F0008DF803408DF813408DF823408DF833403E
:104300008DF843408DF853408DF863408DF873402D
:104310008DF883408DF893408DF8A3408DF8B3401D
:104320008DF8C3408DF8D3408DF8E3408DF8F3400D
:104330008DF803414FF4887269462846FCF7FBF973
:1043400000BF0EE0A879032802D0A879042801D183
:1043500001206870284610358680701C86B2781C53
:10436000C7B2112FEED344B0BDE8F0817C730308CF
:1043700070B55548D0F8E80303287DD00120534993
:1043800088725349087B11F0ABFA054614232A467C
:1043900000210A2021F0D0FA70B1032005F06AFE56
:1043A00050B1204603F046FA30B9032202210846F4
:1043B000FCF7BEFD25F01AFB00246AE0204603F05E
:1043C00039FA444941F82400012104F10B003F4A25
:1043D00011543F4911F8240011F082FA054604F106
:1043E0000B01C8B214232A46002121F0A5FAD8B146
:1043F000204605F03FFEB8B1204605F03BFE0528FB
:1044000012D0204603F016FA70B92246022108465F
:10441000FCF78EFD204606F09DF92B48D0F8E80306
:10442000022801D125F0E2FA012104F10F00274A08
:104430001154294911F8240011F052FA054604F1EB
:104440000F01C8B214232A46002121F075FAF0B1F9
:10445000204605F00FFED0B1204605F00BFE0528E2
:1044600015D0204603F0E6F9012810D12246032199
:104470000220FCF75DFD00E00DE0204606F06AF941
:104480001148D0F8E803022801D125F0AFFA601CEA
:10449000C4B2042C92DB20F03BFC4EF66021884233
:1044A00011D300240DE02046FCF7D0FB012806D1F3
:1044B000224601210420FCF73BFD25F097FA601C01
:1044C000C4B2042CEFDB70BDA009002028870020B7
:1044D000200000208C3F00200000002010B50024A8
:1044E00012E0E0B205F0B6FD154941F82400084697
:1044F00050F82410204602F025FA1148C83800EB85
:10450000840080ED000A641C082CEADB002407E02C
:10451000E0B204F05DFE0A49C83141F82400641C91
:10452000042CF5DB002407E0E0B205F0A3FD81B226
:10453000044820F81410641C082CF5DB10BD0000A2
:10454000300B0020040A00202DE9F04F9DB00446F6
:104550000426002704EB8401CD4800680C3000EBF2
:10456000810090F8018004EB8401C94800680C3098
:1045700000EB810090F8029004EB8401C4480068CD
:104580000C3000EB810090F803A004EB8401C048DC
:1045900000680C3000EB810090F804B004EB84015B
:1045A000BB4800680C3000EB810040791C9004EBA4
:1045B0008401B74800680C3000EB81008568B54A7B
:1045C00092E80B00D268CDE91A32CDE9180108EB68
:1045D0004801C81DC11700EB5171C1F3C7018DF827
:1045E00060108DF86340AB4B10330FCBCDE9162331
:1045F000CDE9140109F10700C11700EB5171C91091
:104600008DF850108DF85340A24B20330FCBCDE9DD
:104610001223CDE910018DF843409E4B30330FCB70
:10462000CDE90E23CDE90C010AF10700C11700EB1B
:104630005171C9108DF830108DF83340954B4033CF
:104640000FCBCDE90A23CDE9080108F10700C11716
:1046500000EB5171C9108DF820108DF823408D4B5F
:1046600050330FCBCDE90623CDE904018DF813407B
:10467000884B6033D3E901021968DB68CDE9022376
:10468000CDE900108DF8034040350A2C7DDA00BFDB
:1046900035E03B462A4631462046FFF71BFE7C4864
:1046A00000688078C1197A480068D43000EB411066
:1046B0000560774800688078C11975480068D43073
:1046C00000EB411047770021714800688078C219DB
:1046D0006F480068D43000EB421001776C480068E6
:1046E0008078C1196A480068D43000EB41108460BA
:1046F00006F1110086B205F58875781CC7B24745EA
:10470000C7DBB8F1000F1FD0102218A92846FCF70C
:1047100012F8002711E05E48006881785C48006864
:10472000D43000EB41104560594800688078401C47
:10473000574909688870781CC7B24745EBDB2846A3
:1047400010358680701C86B2B9F1000F10D010228F
:1047500014A92846FBF7EFFF4D48006800F2D4503B
:1047600000EB04100560284610358680701C86B268
:10477000B8F1000F12D0102210A92846FBF7DBFF7A
:104780004348006800F2D45000E07DE000EB0410E4
:104790004560284610358680701C86B2BAF1000F3D
:1047A00012D010220CA92846FBF7C5FF3848006834
:1047B00000F2D45000EB0410856001206870284698
:1047C00010358680701C86B2B8F1000F12D010220E
:1047D00008A92846FBF7AFFF2D48006800F2D45027
:1047E00000EB0410C56001206870284610358680F3
:1047F000701C86B2BBF1000F20D000271CE01022F5
:1048000004A92846FBF797FF04EB840120480068C1
:104810000C3000EB8100C06838B904EB84011C48FF
:1048200000680C3000EB8100C5602846103586809A
:10483000701C86B2781CC7B25F45E0DB1C9818B3C9
:1048400000271EE0102269462846FBF774FF04EBA0
:1048500084010F4800680C3000EB8100006938B912
:1048600004EB84010A4800680C3000EB810005610C
:1048700001206870284610358680701C86B2781C2E
:10488000C7B21C988742DDDB1DB0BDE8F08F000089
:104890001C0100208C74030810B5122011F020F8C0
:1048A0000446C82322460021084621F045F840B9B5
:1048B0004F48C8230121D0F88824042021F03CF877
:1048C00060B34C48D0F8E80301281AD114201CF03A
:1048D000B3F860B900214648C0F894140221454855
:1048E000C0F8B81B2B214248C0F8941404E0012200
:1048F00000210220FCF71CFB00213D48C0F8881471
:104900000CE03C48D0F8E803022807D101213948DF
:10491000C0F8B81B00213648C0F88814132010F0E6
:10492000DFFF0446C82322460021012021F004F8BD
:10493000A8B13048D0F8E803022810D02E4890F8EB
:10494000C80060B914201CF077F820B901211420A8
:104950001CF080F803E0002114201CF07BF81420E8
:1049600010F0BEFF0446C82322460021022020F09A
:10497000E3FFA8B11F48D0F8E803022810D01E4872
:1049800090F8C80060B913201CF056F820B9012136
:1049900013201CF05FF803E0002113201CF05AF8EC
:1049A0001448D0F85C03032804D80C2010F098FFBA
:1049B00001280DD104210F48C0F8B81B0C2010F0BD
:1049C0008FFF012804D1012200210320FCF7B0FA57
:1049D0000C2010F085FF04460023224619460320D0
:1049E00020F0AAFF18B101210248C0F8B81B10BD81
:1049F000E0280020A00900209C3F00202DE9FC4772
:104A000004460D4616461F46DDF828904FF0000874
:104A100014B10DB106B117B90120BDE8FC87601EC5
:104A2000C4B2681EC5B2701EC6B2781E87B201201D
:104A30006D4908800880022100230A46CDE9001054
:104A40006A4805F043F90120022100230A46CDE916
:104A500000100146654805F039F909220121634833
:104A600005F014F909220021604805F00FF9012032
:104A70005F49088000205F4908600846006840F0F0
:104A80000100086008E008F101001FFA80F8B8F1A1
:104A9000640F01DD0220C0E75648001D006800F0E9
:104AA00001000028EFD053480068524908600846CA
:104AB000006840F04000086008460068086008464A
:104AC000006840F01000086008460068086008466A
:104AD00000680860002047491C31086008460068EB
:104AE00040EA897008600846006840EA046008608F
:104AF0000846006840EA055008600846006840EA39
:104B00000640086008460068384308603948006875
:104B100020F001003749086009E008F101001FFAA0
:104B200080F84FF6F070804501DD032075E73148CD
:104B3000001D006800F001000028EED12E4800683A
:104B400040F001002C4908602B481C30006820F020
:104B5000010029491C31086027480C30006840F0EA
:104B6000010025490C3108602348001D00682249D6
:104B7000091D08602048143000681F49143108607E
:104B800000201D494031086000211B48443001606D
:104B900019481C30006840F0010017491C310860BA
:104BA0001548006800201449086012481430006855
:104BB00040F001000F491431086002231322002144
:104BC000012017F0FFFB0B481430006840F0020092
:104BD000084914310860022314220021012017F033
:104BE000F1FB002019E700000C064742000C0240D0
:104BF000640847420064004000660040014621B955
:104C00000748006800F003007047012905D10448F7
:104C1000001D006800F00300F6E70020F4E7000044
:104C20000C64004000B500F007F801200149487409
:104C300000BD0000286F00200FB50020FFF7DEFF49
:104C400010B9002004B000BD0648411E02AB03AA03
:104C5000CDE90010411F002000F006F80148193886
:104C6000007EEFE7416F0020F0B5DDE90554324EDC
:104C700006EB0016366806F004061670167836B98C
:104C80002D4E06EB00163668760D0E6005E02A4EB6
:104C900006EB00163668F6080E60274E06EB001687
:104CA000366806F002061E70234E06EB0016766884
:104CB00006F00F062E70204E06EB0016B668267022
:104CC0001D4E06EB0016B668360A66701A4E06EBE5
:104CD0000016B668360CA670174E06EB0016B668BE
:104CE000360EE670144E06EB0016F6682671124E6C
:104CF00006EB0016F668360A66710F4E06EB0016D4
:104D0000F668360CA6710C4E06EB0016F668360EE9
:104D1000E67130B9094E366846F02006074F3E600E
:104D200009E0012807D1054E361D366846F02006F9
:104D3000024F3F1D3E60F0BDB06500400C64004076
:104D40001248006800F0010028B11048006840F0E7
:104D500001000E4908600D48006800F4807028B119
:104D60000A48006840F480700849086007480068F5
:104D700000F4803028B10548006840F480300349D1
:104D80000860002002490860704700000864004085
:104D9000286F0020F0B505460E46059C3748006890
:104DA00000F0806008B1002101E0FF20F0BD002785
:104DB000334800EB011007601EB9C5F30A056D0505
:104DC00002E025F06045ED002D4800EB0110006881
:104DD00028432B4F07EB01173860294800EB0110DF
:104DE000006840EA8607264800EB01100760244867
:104DF00000EB0110006840EA4207214800EB011077
:104E0000076003F00F031E4800EB0110406820F01C
:104E10000F071B4800EB01104760194800EB011019
:104E200040681843164F07EB01177860E0790006D9
:104E3000A77940EA0740677940EA07202779384395
:104E40000F4F07EB0117F860E0780006A77840EAFB
:104E50000740677840EA072027783843084F07EB78
:104E60000117B860064800EB0110006840F0010728
:104E7000034800EB01100760084697E7086400400C
:104E8000806500402DE9F04704460D469146C4F385
:104E90000466C4F30A2704F0FF0868B216490870D4
:104EA0000846007830B115480068007891F9001084
:104EB00088421ED11248007886421AD111480088D3
:104EC000874216D110480078804512D10B480068FF
:104ED000C07948B9084890F900200C490748006893
:104EE0000830FBF728FC02E00020BDE8F087002036
:104EF000FBE74FF0FF30F8E710010020FC00002036
:104F0000F4000020F6000020F9000020000100203D
:104F100010B523480068C07918B9002021490870ED
:104F20000EE01F480068007840B21E49087008462D
:104F300090F900201A48016808311B48FBF7FBFB79
:104F400017480068C07819490870154800688088BB
:104F500017490880174800781649087010480068FB
:104F6000C0791549087011480078C006C008097852
:104F700001F0010140EAC1500D490988C1F30A015D
:104F800040EA01200B49097808430C4908600548AC
:104F90000178054A0948006800F0E0FD10BD0000F6
:104FA000FC0000201101002008010020F400002076
:104FB000F6000020F9000020F80000201801002071
:104FC00010B55048006828B14E48406810B901201B
:104FD0004C4948604B484068012802D002287DD1E6
:104FE0000EE000F093FD50B9FFF792FF1FF08AFE2C
:104FF0004549086043484068401C424948607FE09A
:105000004249434800F066FD42490870084690F95D
:105010000000002840DB084601783C4A3C48006814
:10502000FFF730FF78B93C480068807830B13A48E3
:1050300000688078401E384909688870002031492E
:105040000860486028E0344800688078401C324995
:1050500009688870304800688079032804D02E4899
:1050600000688079042802D10120264948602A4836
:105070000068807805280FDB00202249086048601E
:1050800026480068806824490968CA78012191404F
:1050900008432249096888601FF034FE1A490968EC
:1050A000401A0F282AD91C4800688078401C1A49E9
:1050B00009688870184800688079032804D0164869
:1050C00000688079042802D100200E494860124807
:1050D00000688078052811DB002000E00FE0094916
:1050E000086048600D48006880680B490968CA7804
:1050F00001219140084309490968886000E000BF28
:1051000000BF10BD24010020340100200001002058
:105110001401002010010020FC0000201C010020D0
:1051200070B586B00446002508E00021FE4800EB7B
:10513000C410643040F82510681CC5B2072DF4DB9C
:1051400020461BF017FEF84901EBC4118865F648AC
:1051500000EBC410007800287ED1F34800EBC410A7
:10516000C069002877D0F04800EBC410006A00281E
:1051700071D0ED4800EBC410C068EB4901EBC411DD
:105180008968401A00EE100AB8EE400ADFEDE70A1F
:1051900060EE200AE44800EBC41090ED070AB8EE78
:1051A000400A80EE801ABCEEC10ADF4800EBC41052
:1051B00080ED050ADC4800EBC4104369DA4800EBD7
:1051C000C410C268D84800EBC410816802A802F07D
:1051D00053FDDDE90201CDE90401D34800EBC41021
:1051E00005998166D04800EBC410C168CE4800EB39
:1051F000C4100069081A00EE100AB8EE400ADFED8C
:10520000CB0A60EE200AC84800EBC41090ED080AF3
:10521000B8EE400A80EE801ABCEEC10AC24800EB2C
:10522000C41080ED060AC04800EBC4108369BE4874
:1052300000EBC4100269BC4800EBC410C16802A8AE
:1052400003F0ACF8DDE90201CDE90401B64800EB5A
:10525000C4100599816700E0A2E0B34800EBC410D8
:10526000816EB14800EBC410806F0144AE4800EB82
:10527000C410806D814212D8AB4800EBC410816D20
:10528000A94800EBC410806E091AA74800EBC410AF
:10529000806F091AA44800EBC410016764E2A248B9
:1052A00000EBC41090ED160AB8EE400ADFEDA00A3C
:1052B00060EE200A9C4800EBC41090ED070AB8EE9F
:1052C000400A60EE800A984800EBC410C169964815
:1052D00000EBC410006A084400EE100AB8EE400A61
:1052E00080EE801ABCEEC10A10EE106A8E4800EB08
:1052F000C41042698C4800EBC4103346816802A890
:105300001BF092FEDDE90201CDE90401864800EBC5
:10531000C4100499C160844800EBC41005998166EB
:10532000814800EBC41083697F4800EBC410026918
:105330007D4800EBC410C16802A803F02FF8DDE936
:105340000201CDE90401784800EBC410059981679A
:10535000754800EBC410816E734800EBC410806F79
:105360000144714800EBC410806D814212D86E4830
:1053700000EBC410816D6C4800EBC410806E091AFC
:10538000694800EBC410806F091A674800EBC4102D
:1053900001679BE30021644800EBC410016795E3BB
:1053A000614800EBC41000780128F2D15E4800EBA0
:1053B000C410C0690028ECD05B4800EBC410006A40
:1053C0000028E6D0584800EBC41090ED070AB8EE6C
:1053D000400ADFED580A20EE200ADFED540A80EE85
:1053E000201A514800EBC41080ED091A4E4800EB1A
:1053F000C410C0684C4901EBC4118968401A00EE22
:10540000100AB8EE400ADFED490A60EE200A46486D
:1054100000EBC41090ED070AB8EE400A9FED461A63
:1054200020EE010A80EE801ABDEEC10A3E4800EB74
:10543000C41080ED050A3C4800EBC41090ED050A4D
:10544000B8EE400A384800EBC410D0ED090A9FEDD1
:10545000371A20EE811AC0EE010AB6EE000A30EECD
:10546000800ABDEEC00A304800EBC41080ED0B0A84
:105470002D4800EBC41090ED080AB8EE400ADFEDAD
:105480002D0A20EE200ADFED290A80EE201A264898
:1054900000EBC41080ED0A1A234800EBC410C16869
:1054A000214800EBC4100069081A00EE100AB8EE9B
:1054B000400ADFED1E0A60EE200A1B4800EBC41014
:1054C00090ED080AB8EE400A9FED1B1A20EE010A83
:1054D00080EE801ABDEEC10A134800EBC41080EDC7
:1054E000060A114800EBC41090ED060AB8EE400A17
:1054F0000D4800EBC410D0ED0A0A9FED0C1A20EE07
:10550000811AC0EE010AB6EE000A30EE800ABDEE46
:10551000C00A054800EBC41080ED0C0A024800EBFD
:10552000C410C36A004809E0B86E012000007A4444
:105530006666663FCDCCCC3E9A99193F00EBC4100D
:105540004269FE4800EBC410816802A802F010FB1B
:10555000DDE90201CDE90401F84800EBC41004992B
:10556000C163F64800EBC41005994166F34800EBAF
:10557000C410C068F14901EBC41189680144EF48C7
:1055800000EBC410C06B091AEC4800EBC4100164B6
:10559000EA4800EBC4104369E84800EBC410026C11
:1055A000E64800EBC410C16B02A802F081FCDDE903
:1055B0000201CDE90401E14800EBC4100499016443
:1055C000DE4800EBC41005998166DC4800EBC4108E
:1055D000C06A0090D94800EBC4104369D74800EB7B
:1055E000C410C268D54800EBC410016C02A802F0D8
:1055F00013FADDE90201CDE90401D04800EBC41043
:105600000599C166CD4800EBC410036BCB4800EB95
:10561000C4108269C94800EBC410C16802A802F036
:1056200013FEDDE90201CDE90401C44800EBC4101A
:1056300004994164C14800EBC41005994167BF4813
:1056400000EBC410C168BD4800EBC4100069014400
:10565000BA4800EBC410406C091AB84800EBC410FB
:105660008164B64800EBC4108369B44800EBC410F1
:10567000826CB24800EBC410416C02A802F0F0FF4B
:10568000DDE90201CDE90401AC4800EBC410049946
:105690008164AA4800EBC41005998167A74800EB14
:1056A000C410006B0090A54800EBC4108369A348A8
:1056B00000EBC4100269A14800EBC410816C02A881
:1056C00002F004FDDDE90201CDE904019B4800EB95
:1056D000C4100599C167994800EBC410416E974802
:1056E00000EBC410806E0144944800EBC410C06EFF
:1056F0000144924800EBC410406F01448F4800EB16
:10570000C410806F01448D4800EBC410C06F014489
:105710008A4800EBC410806D814226D2874800EB96
:10572000C410416E854800EBC410806E014483486C
:1057300000EBC410C06E0144804800EBC410406F01
:1057400001447E4800EBC410806F01447B4800EBAD
:10575000C410C06F0144794800EBC410806D411A39
:10576000764800EBC4100167B0E10021734800EBFC
:10577000C4108166714800EBC41081676F4800EB6C
:10578000C410806D6D4901EBC411C96948436B4970
:1057900001EBC411CA69694901EBC411096A1144DA
:1057A000B0FBF1F005909DED050AB8EE400A5FED03
:1057B000A10A60EE200A614800EBC41090ED070AD0
:1057C000B8EE401A80EE810AF6EE000A30EE200AAA
:1057D000BDEEC00A10EE100A584901EBC4118968E9
:1057E000884208D2554800EBC4108168534800EB4A
:1057F000C410C16024E09DED050AB8EE400ADFED5B
:10580000500A60EE200A4D4800EBC41090ED070AE4
:10581000B8EE400A80EE801A484800EBC41090EDC4
:10582000020AB8EE400A31EE400AF6EE000A30EE07
:10583000200ABDEEC00A414800EBC41080ED030A07
:105840003E4800EBC410C0683C4901EBC4118968B4
:10585000884212D1002508E00021384800EBC4102E
:10586000643040F82510681CC5B2072DF4DB002118
:10587000324800EBC410016728E1304800EBC41047
:10588000C0682E4901EBC4118968401A00EE100A65
:10589000B8EE400ADFED2B0A60EE200A274800EB45
:1058A000C41090ED070AB8EE400A80EE801ABCEEF4
:1058B000C10A224800EBC41080ED0B0A1F4800EB20
:1058C000C410C06A1D4901EBC411C96948434108AD
:1058D0001A4800EBC4104161184800EBC41090ED69
:1058E000070AF8EE400A154800EBC41090ED080ACC
:1058F000B8EE400A80EE801A104800EBC41090ED1C
:105900000B0AB8EE400A61EE000A0C4800EBC41026
:1059100090ED070AB8EE401A084800EBC41090ED6D
:10592000080AB8EE400AC1EE001A20EEA10ABCEE49
:10593000C00A024800EBC41006E00000B86E012067
:105940000000FA440000C84380ED0C0A604800EBF8
:10595000C410006B5E4901EBC411096A4843410859
:105960005B4800EBC41081610021594800EBC41072
:105970008166574800EBC4108167554800EBC4109E
:10598000C36A534800EBC4104269514800EBC4108D
:10599000816802A802F0ECF8DDE90201CDE904011A
:1059A0004B4800EBC4100499C163494800EBC41094
:1059B00005994166464800EBC410C06A009044480F
:1059C00000EBC4104369424800EBC410C268404871
:1059D00000EBC410C16B02A802F01EF8DDE9020161
:1059E000CDE904013A4800EBC4100599C166384876
:1059F00000EBC410036B364800EBC41082693448D6
:105A000000EBC410C16802A802F01EFCDDE902012F
:105A1000CDE904012E4800EBC410049941642C48E0
:105A200000EBC41005994167294800EBC410006BD6
:105A30000090274800EBC4108369254800EBC41090
:105A40000269234800EBC410416C02A802F03EFB3F
:105A5000DDE90201CDE904011D4800EBC410059900
:105A6000C1671B4800EBC410416E194800EBC4101D
:105A7000C06E0144164800EBC410406F0144144846
:105A800000EBC410C06F0144114800EBC410806DDE
:105A900081421BD20E4800EBC410416E0C4800EB53
:105AA000C410C06E01440A4800EBC410406F0144AA
:105AB000074800EBC410C06F0144054800EBC41058
:105AC000806D411A024800EBC410016706B070BD3A
:105AD000B86E012070B504460D460B48407C78B185
