:020000040804EE
:10000000E88D01207D0204088B0204088D0204089B
:100010008F020408910204089302040854FF0508A3
:10002000000000000000000000000000970204082B
:1000300099020408000000009B0204089D020408C5
:100040009F020408A1020408A302040829D9040895
:10005000A7020408A9020408AB020408AD020408C0
:10006000AF020408B1020408B3020408B502040890
:10007000B7020408B90204089D4F0408C54F0408DC
:10008000BF020408ED4F0408C3020408AD2F0408A2
:10009000912E0408C9020408CB020408CD0204080A
:1000A000E1040508A105050841050508D502040875
:1000B0004906050895060508E9060508DD02040855
:1000C000DF020408E1020408E3020408E502040870
:1000D000E7020408D50F0508EB02040851100508D3
:1000E000EF02040851D60408F30204084908050881
:1000F00009090508A9080508FB02040809500408B5
:10010000FF0204087DE10408490705080503040807
:100110004D0D050809030408A90705080D03040887
:100120000F0304081103040813030408150304084B
:1001300017030408896204081B0304081D0304084C
:100140001F03040821030408230304087DCF0408C7
:100150002703040825500408455004082D0304080B
:100160002F0304083103040833030408350304088B
:1001700037030408390304083B0304083D0304085B
:100180003F0304084103040800F002F800F067F898
:100190000AA090E8000C82448344AAF10107DA45E2
:1001A00001D100F05CF8AFF2090EBAE80F0013F0CD
:1001B000010F18BFFB1A43F0010318474C06020059
:1001C0006C0602000A444FF0000C10F8013B13F0DB
:1001D000070408BF10F8014B1D1108BF10F8015BA0
:1001E000641E05D010F8016B641E01F8016BF9D193
:1001F00013F0080F1EBF10F8014BAD1C0C1B09D1EA
:100200006D1E58BF01F801CBFAD505E014F8016B5B
:1002100001F8016B6D1EF9D59142D6D370470000ED
:100220000023002400250026103A28BF78C1FBD8FF
:10023000520728BF30C148BF0B607047642900F0E7
:100240001581782900F04E81732900F07983002010
:1002500070471FB51FF072FE1FBD10B510BD00F036
:10026000A9FB1146FFF7F5FF19F07DFC00F0C7FB75
:1002700003B4FFF7F2FF03BC15F093F934480168AB
:1002800041F47001016033480047FEE7FEE7FEE7F6
:10029000FEE7FEE7FEE7FEE7FEE7FEE7FEE7FEE736
:1002A000FEE7FEE7FEE7FEE7FEE7FEE7FEE7FEE726
:1002B000FEE7FEE7FEE7FEE7FEE7FEE7FEE7FEE716
:1002C000FEE7FEE7FEE7FEE7FEE7FEE7FEE7FEE706
:1002D000FEE7FEE7FEE7FEE7FEE7FEE7FEE7FEE7F6
:1002E000FEE7FEE7FEE7FEE7FEE7FEE7FEE7FEE7E6
:1002F000FEE7FEE7FEE7FEE7FEE7FEE7FEE7FEE7D6
:10030000FEE7FEE7FEE7FEE7FEE7FEE7FEE7FEE7C5
:10031000FEE7FEE7FEE7FEE7FEE7FEE7FEE7FEE7B5
:10032000FEE7FEE7FEE7FEE7FEE7FEE7FEE7FEE7A5
:10033000FEE7FEE7FEE7FEE7FEE7FEE7FEE7FEE795
:10034000FEE7000004480549034A054B70470000DA
:1003500088ED00E089010408E8590120E88D0120BA
:10036000E85901207047B2F120030AD5C2F12003F9
:1003700001FA02F120FA03F300FA02F041EA030164
:10038000704700FA03F14FF000007047B2F120030C
:100390000AD5C2F1200320FA02F001FA03F321FA90
:1003A00002F140EA0300704721FA03F04FF0000128
:1003B000704700000FB4044910B503AA029800F07A
:1003C000C3FA10BC5DF814FBD802002070B50446D7
:1003D00085690068C10601D5302600E02026C007E7
:1003E00007D070BDD4E9012130469047206A401CF7
:1003F00020626D1EF6D570BD70B504468569007823
:10040000C00707D170BDD4E9012120209047206AA0
:10041000401C20626D1EF6D570BD70B50C460546B9
:10042000012A05D02878800600D5EA69002302E079
:10043000012305E05B1C934202D2E05C0028F9D165
:10044000A869E618C01AA861286A184428622846D4
:10045000FFF7BCFF04E0D5E9012114F8010B904738
:10046000B442F8D32846FFF7C7FF70BD2DE9F0412D
:100470000646002410687529314616A510D0AFF342
:100480000080002802DA404213A507E031688A079D
:1004900001D512A502E0490704D511A5012401E008
:1004A000AFF3008000210A2206F1240709E0B0FB27
:1004B000F2FCB0FBF2F302FB1C003030785418461B
:1004C000491C0028F3D123462A463046BDE8F041B6
:1004D00000F0CBB9000000002D0000002B00000050
:1004E0002000000070B504460D4621461068AFF3A9
:1004F00000802188090502D50F4A7A4402E00E4A9D
:100500007A440E32002104F1240305E000F00F06C6
:100510000009965D5E54491C0028F7D1207800231D
:10052000000704D5702D02D009B1022311322046F4
:10053000BDE8704000F099B99A0102002DE9F05F22
:10054000894604464FF0000ADFF824B1FB44C0F8A6
:1005500020A02046E168884700287DD0252806D0C5
:10056000D4E901219047206A401C2062F1E7002570
:100570005F462046E16888472028064607DB312E83
:1005800005D2B81910F8200C08B10543F1E7A80707
:1005900001D525F00405C4F81CA00027C4F818A054
:1005A0002A2E09D0304614F0F5FF38B304EB870843
:1005B000303EC8F8186019E059F8041B204604EBD7
:1005C00087029161E1688847012F064618D1E069EA
:1005D000002820DA25F020051DE0D8F8180000EBEF
:1005E000800006EB40003038C8F818002046E1686B
:1005F0008847064614F0CEFF0028EED1012F0AD01E
:100600002E2E08D12046E16888477F1C0646022F1F
:1006100045F02005C4DBA069002803DA404245F01C
:100620000105A061E80701D025F01005A6B1A6F1EB
:100630004100192802D8203645F400654A46314663
:10064000204625604D46FFF7F9FD60B1012807D02F
:10065000ED1D25F0070000E007E000F1080978E74C
:1006600005F1040975E730467AE7206ABDE8F09F96
:100670007001020040EA010310B59B070FD1042A64
:100680000DD310C808C9121F9C42F8D020BA19BA5D
:10069000884201D9012010BD4FF0FF3010BD1AB1C2
:1006A000D30703D0521C07E0002010BD10F8013B17
:1006B00011F8014B1B1B07D110F8013B11F8014B3E
:1006C0001B1B01D1921EF1D1184610BD032A40F226
:1006D000308010F0030C00F0158011F8013BBCF1E4
:1006E000020F624498BF11F801CB00F8013B38BFFC
:1006F00011F8013BA2F1040298BF00F801CB38BF0A
:1007000000F8013B11F0030300F02580083AC0F027
:10071000088051F8043B083A51F804CBA0E80810CF
:10072000F5E7121D5CBF51F8043B40F8043BAFF302
:100730000080D20724BF11F8013B11F801CB48BF5C
:1007400011F8012B24BF00F8013B00F801CB48BF92
:1007500000F8012B704710B5203AC0F00B80B1E8CB
:100760001850203AA0E81850B1E81850A0E81850E6
:10077000BFF4F5AF5FEA027C24BFB1E81850A0E8EF
:10078000185044BF18C918C0BDE810405FEA827C09
:1007900024BF51F8043B40F8043B08BF7047D20720
:1007A00028BF31F8023B48BF11F8012B28BF20F8C1
:1007B000023B48BF00F8012B70474FF000020429AC
:1007C000C0F0128010F0030C00F01B80CCF1040C80
:1007D000BCF1020F18BF00F8012BA8BF20F8022BB4
:1007E000A1EB0C0100F00DB85FEAC17C24BF00F85A
:1007F000012B00F8012B48BF00F8012B70474FF088
:10080000000200B5134694469646203922BFA0E860
:100810000C50A0E80C50B1F12001BFF4F7AF09076C
:1008200028BFA0E80C5048BF0CC05DF804EB89005D
:1008300028BF40F8042B08BF704748BF20F8022BA0
:1008400011F0804F18BF00F8012B704770477047B8
:100850007047704710B500F089F8006810BD10B5FA
:10086000044600F083F8046010BD2DE9F0470D4602
:1008700099469246044600F124080168880604D58A
:10088000E06921F01001216000E00120A84201DDB3
:10089000471B00E00027A1697A1902EB0900081A3A
:1008A000A0612078C00602D42046FFF78FFD002605
:1008B00008E0D4E901211AF806009047206A401C9C
:1008C000761C20624E45F4DB2078C0060AD520460F
:1008D000FFF77CFD06E0D4E9012130209047206A33
:1008E000401C2062381EA7F10107F4DC07E0D4E9C0
:1008F000012118F805009047206A401C2062281E3C
:10090000A5F10105F3DC2046FFF776FD207800060F
:1009100002D50220BDE8F0870120FBE710B543694E
:1009200013B1AFF3008001E0FFF777FD012010BDA8
:10093000127800F124010A7000224A700122EDE7CA
:1009400011684FF0FF32E9E7074B70B50D467B4465
:1009500000F015F80446284600F024F810B14FF0D6
:10096000FF3070BD204670BD7B69010000487047B4
:100970008859012001694A1C02610878704700B556
:100980008FB0CDE901310021059105497944CDE9C8
:10099000031011466846FFF7D1FD0FB000BD0000FF
:1009A000E5FFFFFF007B00F08000704700487047C4
:1009B000885901207546FFF7F9FFAE4605006946E4
:1009C000534620F00700854618B020B5FFF7BAFC63
:1009D000BDE820404FF000064FF000074FF0000840
:1009E0004FF0000B21F00701AC46ACE8C009ACE8C1
:1009F000C009ACE8C009ACE8C0098D46704710B525
:100A00000446AFF300802046BDE81040FFF730BC3D
:100A10000146082904DA044850F82100008870478C
:100A20004FF0FF30FBE700009C0300201CB50120C5
:100A30003149088031490880002000900346032294
:100A4000022101902E4806F09FFC2E48006840F4D9
:100A500080702C4908600846006820F480700860A7
:100A60004FF44030284908600020284948608860D9
:100A70000846406848600846406848600846806804
:100A800040F0020088600846806820F400608860BA
:100A90000846806888600846C06A20F47000C86212
:100AA0000846C06AC8620846006920F060500861C4
:100AB0000846006940F0405008610846806840F0F0
:100AC000010088600846806840F40070886008462D
:100AD000806840F4807088600846406B20F01F00FA
:100AE00048630846406B40F0090048630846806848
:100AF00040F0804088601CBDA00847420406474281
:100B00000004024024380240042301400020014038
:100B10001CB501203E4908803E4908800020009015
:100B200003460322012101903B4806F02DFC3B487F
:100B3000006840F40070394908600846006820F4F5
:100B4000007008600020364908603649C1F8080185
:100B500033480068C1F8040131480068C1F8040155
:100B60000846D0F8080140F00200C1F80801084624
:100B7000D0F8080120F40060C1F808012848001DE1
:100B80000068C1F808010846D0F82C0120F4700074
:100B9000C1F82C01224828300068C1F82C01084611
:100BA000D0F8100120F0E060C1F810010846D0F83C
:100BB000100140F0E060C1F810010846D0F80801CB
:100BC00040F00100C1F808010846D0F8080140F4DF
:100BD0000070C1F808010846D0F8080140F48070A0
:100BE000C1F808010846D0F8340120F01F00C1F810
:100BF00034010846D0F8340140F00800C1F834014F
:100C00000846D0F8080140F08040C1F808011CBD3A
:100C1000A408474204064742000402402438024028
:100C200004210140002001401CB50A203221124B52
:100C3000124ACDE900100021114808F0FFFB0A20FC
:100C400032210D4B64330F4ACDE9001001210C48CD
:100C5000303008F0F3FB3221094808F0C7FC32219C
:100C60000748303008F0C2FC022014F04DFEFFF7B8
:100C7000DDFEFFF74DFF1CBDEC6A00204C2001405B
:100C8000106402404C21014013200FE0094909681B
:100C900051F8201049B10146C21700EB9272921030
:100CA000521C044B1B681A6502E0401E0028EDDA56
:100CB00000BF7047940100200C4A1168B1F8D42895
:100CC000012A11D10022A1F8D428002006E0002238
:100CD000074B1B6843F82020421CD0B21428F6DBD7
:100CE0000022034B1B681A65704700009C0100201E
:100CF0009401002030B5012818DB052816DC0329F3
:100D000014DC1F2A12DC0423C3EB80030B44084CC1
:100D1000246854F823300124944023430424C4EB72
:100D200080040C44024D2D6845F8243030BD00008D
:100D30009401002010B5002410E0A01DC1B20020D5
:100D400007F0B8FA012807D1A01CC2B20021042084
:100D5000FFF7D0FF14F032F8601CC4B2052CECDBB6
:100D60000D2007F06BFE012806D10022114602205B
:100D7000FFF7C0FF14F022F810BD00003EB54FF49D
:100D80007A608110009142F6E463294ACDE90110AE
:100D9000A2F69441A1F5437017F0EAFB0120254922
:100DA000886202212348C16213210163002405E007
:100DB000012120460CF0F8F8601CC4B2182CF7DBB7
:100DC000002405E00121204605F060F9601CC4B252
:100DD000082CF7DB1849164801F0C0FA03F0B2F905
:100DE0000FF006F901211348C0F8EC13B7EE000A22
:100DF00000F6B83080ED4F0A00210E48C0F8C81B3D
:100E0000C0F8CC1B00F5FA50C0F80418C0F8001860
:100E1000C0F85011C0F8E017C0F8F81720210748B3
:100E2000FFF7CBFC00210348C0F80C1D3EBD0000BD
:100E300074190020D4090020D4220020CC0D0020F9
:100E400070B505460C46012C00DD70BD2846FFF745
:100E5000DFFDA0420ED1284601F0E8F90121284625
:100E600001F0D0F90720C5EBC501034A02EB0111DF
:100E700081F8640000BFE8E75C630020C0EBC001BC
:100E8000074A02EB0111B1F8601039B90021C0EB3B
:100E9000C002034B03EB021282F86410704700009B
:100EA0005C63002070470000C0EBC001074A02EB02
:100EB0000111B1F8601039B90021C0EBC002034B39
:100EC00003EB021282F86410704700005C6300209C
:100ED0007047000010B500204F49087096E04E485A
:100EE0000078C0EBC0004D4901EB0010B0F8600085
:100EF00048B14B4848490978405C20B9012148482D
:100F0000454A12788154464843490978405C012893
:100F100004D0022847D0032872D171E03E480078FF
:100F200003F0A8F93C490978C1EBC1013B4A02EB47
:100F30000111C86538480078C0EBC00002EB001012
:100F4000C16D354800780CF009FA334800780CF090
:100F5000A7F931490978C1EBC101304A02EB01110F
:100F600091F96C102C4A1278C2EBC2022B4B03EBA6
:100F70000212526D00FB012027490978C1EBC10123
:100F80001A4602EB01118865234800780CF0B0F98D
:100F900040B9234820490978405C401C20491E4A3A
:100FA000127888542CE01C4800780CF079F91A4922
:100FB0000978C1EBC101194A02EB011191F96C10DA
:100FC000154A1278C2EBC202144B03EB0212526DA7
:100FD00000FB012010490978C1EBC1011A4602EB60
:100FE0000111886500200C490978C1EBC10102EBB1
:100FF0000111A1F860000A49074A1278885400BF1D
:1010000000BF05480078401C03490870024800787A
:101010001028FFF664AF10BDB40100205C6300200F
:101020005C6A00207FB504460D46C4EBC4006249EB
:1010300001EB0010B0F8600000287CD1C4EBC400C4
:1010400001EB0010806DC4EBC4015B4A02EB01119F
:101050004865C4EBC400114601EB00104068C4EBC6
:10106000C40102EB0111C865C4EBC40002EB00101F
:10107000C16D20460CF072F9002D49DD012120469A
:1010800000F01CFFC4EBC4004B4A02EB00104168A7
:1010900020460CF063F9294620460CF017FA01208F
:1010A000C4EBC401444A02EB0111A1F86000C4EB97
:1010B000C400114601EB00104069C4EBC40102EB0F
:1010C00001118968C4EBC4023B4B03EB0212126DA1
:1010D000C4EBC403384E06EB0313DB69CDE90032E1
:1010E000CDE90210C4EBC40006EB00100369C4EBA9
:1010F000C40006EB00104268C4EBC40006EB00100D
:1011000090F82010204603F00FFF002004B070BDBF
:10111000002D4BDA4FF0FF31204600F0CFFEC4EB3C
:10112000C400254A02EB0010416820460CF016F975
:101130006942204600E03BE00CF0C8F90120C4EB16
:10114000C4011D4A02EB0111A1F86000C4EBC40008
:10115000114601EB00104069C4EBC40102EB011120
:101160008968C4EBC402144B03EB0212126DC4EB8A
:10117000C403114E06EB0313DB69CDE90032CDE960
:101180000210C4EBC40006EB00100369C4EBC400FA
:1011900006EB00104268C4EBC40006EB001090F8A8
:1011A0002010204603F0C0FE0020AFE70020ADE78E
:1011B0004FF0FF30AAE700005C63002010B5044642
:1011C000C4EBC400FE4901EB001090F86400052850
:1011D00013D1C4EBC40001EB0010B0F8620060B999
:1011E0000120C4EBC401F64A02EB0111A1F8620030
:1011F0000FF0D6F8F34941F82400C4EBC400F049DD
:1012000001EB001090F8640005282AD1C4EBC4005B
:1012100001EB0010406B20B30FF0C2F8E94951F820
:101220002410401AC4EBC401E54A02EB0111496BDA
:10123000884216D90221204600F0E4FF204600F043
:10124000F5FF0020C4EBC401DD4A02EB0111A1F857
:1012500062000720C4EBC40102EB011181F86400B5
:1012600010BDC4EBC400D64901EB0010B0F8620019
:101270001C287AD2DFE800F0790E83B0C7FDFCFBB2
:10128000FAF9F8F7F6F5F4F3F2F1F0EFEEEDECEB36
:10129000EAE9E8E7C4EBC400C94901EB001090F8A3
:1012A000380000F00100C8B3C4EBC40001EB00102B
:1012B00090F83E0088B1C4EBC401C14A02EB0111B1
:1012C00091F8440000F010FFC4EBC401BC4A02EBEB
:1012D000011191F84210884221D0C4EBC400B849F2
:1012E00001EB0010406AC4EBC401B54A02EB0111E6
:1012F00008614FF010412046FFF794FEC4EBC40094
:10130000AF4901EB0010B0F86200401CC4EBC4010F
:10131000AB4A02EB0111A1F862002FE0FFE7C4EB3A
:10132000C400A74901EB001090F8380000F0080055
:1013300040B11020C4EBC401A14A02EB0111A1F895
:1013400062001BE0C4EBC4009D4901EB001090F863
:10135000380000F0100048B11620C4EBC401984AD0
:1013600002EB0111A1F8620008E009E20420C4EBDD
:10137000C401934A02EB0111A1F8620000E2C4EB40
:10138000C4008F4901EB001090F83E0018B3C4EB85
:10139000C4018B4A02EB011191F8440000F0A4FE55
:1013A000C4EBC401864A02EB011191F84210884255
:1013B00011D1204600F03AFFC4EBC400804901EB94
:1013C0000010B0F86200401CC4EBC4017C4A02EB80
:1013D0000111A1F86200D3E1C4EBC400784901EB2C
:1013E0000010B0F8600068B9C4EBC40001EB001055
:1013F000B0F86200401CC4EBC401714A02EB011159
:10140000A1F86200BCE1C4EBC4006D4901EB00101F
:1014100090F8380000F0020060B3C4EBC40001EBA8
:10142000001090F83D0030B3C4EBC401644A02EBF5
:10143000011191F8430000F057FEC4EBC401604A6B
:1014400002EB011118E0FDE3E4E3B7E38CE36AE3A8
:101450001CE30AE3E4E2B7E287E265E217E2F8E1BF
:10146000E0E1A5E18DE160E115E1FDE0D0E075E0AE
:101470005DE02FE025E003E091F84110884220D0A4
:10148000C4EBC4004E4901EB0010406AC4EBC40138
:101490004B4A02EB011108614FF0E0412046FFF793
:1014A000C1FDC4EBC400464901EB0010B0F8620076
:1014B000401CC4EBC401424A02EB0111A1F86200D6
:1014C00007E00720C4EBC4013D4A02EB0111A1F87B
:1014D0006200D7E3C4EBC400394901EB001090F877
:1014E0003D0018B3C4EBC401354A02EB011191F879
:1014F000430000F0F9FDC4EBC401314A02EB0111D5
:1015000091F84110884211D1204600F08FFEC4EBC3
:10151000C4002B4901EB0010B0F86200401CC4EB82
:10152000C401274A02EB0111A1F86200AAE3C4EB4F
:10153000C400234901EB0010B0F8600068B9C4EBA7
:10154000C40001EB0010B0F86200401CC4EBC40101
:101550001B4A02EB0111A1F8620093E3C4EBC40043
:10156000174901EB001090F8380000F0010030B38B
:10157000C4EBC40001EB001090F8380000F002004A
:10158000E8B9C4EBC40001EB0010406AC4EBC4012D
:101590000B4A02EB011108614FF0E0412046FFF7D2
:1015A00041FDC4EBC400064901EB0010B0F8620035
:1015B000401CC4EBC401024A02EB011104E006E046
:1015C0005C6300206C6A0020A1F862001FE0C4EB9D
:1015D000C400FB4901EB0010406AC4EBC401F84AA7
:1015E00002EB011108614FF010412046FFF71AFD90
:1015F000C4EBC400F24901EB0010B0F86200401CDB
:10160000C4EBC401EE4A02EB0111A1F8620039E318
:10161000C4EBC400EA4901EB001090F8300010B3AD
:10162000C4EBC401E64A02EB0111488E00F05CFDF8
:10163000C4EBC401E24A02EB011191F83110884277
:1016400011D1204600F0F2FDC4EBC400DC4901EBEF
:101650000010B0F86200401CC4EBC401D84A02EB91
:101660000111A1F862000DE3C4EBC400D44901EB01
:101670000010B0F8600068B9C4EBC40001EB0010C2
:10168000B0F86200401CC4EBC401CD4A02EB01116A
:10169000A1F86200F6E2C4EBC400C94901EB0010F6
:1016A00090F8300080B3C4EBC401C54A02EB0111CD
:1016B000488E00F019FDC4EBC401C14A02EB0111D0
:1016C00091F83110884220D1C4EBC400114601EBDF
:1016D0000010806AC4EBC40102EB011108614FF0F5
:1016E000E0412046FFF79EFCC4EBC400B44901EB87
:1016F0000010B0F86200401CC4EBC401B04A02EB19
:101700000111A1F862000FE0FFE7C4EBC400AC498F
:1017100001EB0010B0F86200401CC4EBC401A84A01
:1017200002EB0111A1F86200ACE2C4EBC400A449D1
:1017300001EB001090F8300080B1C4EBC401A04A66
:1017400002EB0111488E00F0CFFCC4EBC4019C4AAF
:1017500002EB011191F83110884211D0204600F0BF
:1017600065FDC4EBC400964901EB0010B0F86200BF
:10177000401CC4EBC401924A02EB0111A1F86200C3
:1017800080E2C4EBC4008E4901EB0010B0F86000A9
:1017900068B9C4EBC40001EB0010B0F86200401C53
:1017A000C4EBC401864A02EB0111A1F8620069E2B0
:1017B000C4EBC400824901EB0010C06A10B3C4EB53
:1017C000C40001EB00100069C4EBC4017C4A02EBC9
:1017D00001110861C4EBC40002EB0010C16A20468D
:1017E000FFF720FCC4EBC400754901EB0010B0F812
:1017F0006200401CC4EBC401714A02EB0111A1F864
:1018000062000EE0C4EBC4006D4901EB0010B0F8BB
:101810006200401CC4EBC401694A02EB0111A1F84B
:1018200062002FE2C4EBC400654901EB0010B0F880
:10183000600068B9C4EBC40001EB0010B0F86200AE
:10184000401CC4EBC4015E4A02EB0111A1F8620026
:1018500018E20020C4EBC401594A02EB011188656B
:10186000C4EBC40102EB01110865C4EBC40102EB37
:10187000011181F86400204600F096FC0020C4EBC2
:10188000C4014F4A02EB0111A1F86200FAE1C4EB76
:10189000C4004B4901EB001090F8300080B1C4EB5C
:1018A000C401474A02EB0111488E00F01DFCC4EB55
:1018B000C401434A02EB011191F83110884219D05A
:1018C000C4EBC4003E4901EB0010406AC4EBC40104
:1018D0003B4A02EB011108614FF0E0412046FFF75F
:1018E000A1FB1120C4EBC401354A02EB0111A1F8A0
:1018F000620018E0C4EBC400314901EB0010406AFB
:10190000C4EBC4012E4A02EB011108614FF0E04123
:101910002046FFF787FB1220C4EBC401284A02EBE4
:101920000111A1F86200ADE1C4EBC400244901EB50
:10193000001090F83000B8B1C4EBC401204A02EBAB
:101940000111488E00F0D0FBC4EBC4011C4A02EB2D
:10195000011191F83110884206D11220C4EBC40164
:1019600002EB0111A1F862008CE1C4EBC400144940
:1019700001EB001090F8300080B1C4EBC401104AB4
:1019800002EB0111488E00F0AFFBC4EBC4010C4A1E
:1019900002EB011191F8311088420FD0204600F07F
:1019A00045FC0EF0FDFC074941F824001320C4EB70
:1019B000C401034A02EB0111A1F8620062E10000D8
:1019C0005C630020AC6A0020C4EBC400AF4901EBAB
:1019D0000010B0F8600010BB0EF0E2FCAC4951F80A
:1019E0002410401A40F63401884218D3C4EBC400D6
:1019F000A64901EB0010806AC4EBC401A34A02EBC4
:101A0000011108614FF010412046FFF70BFB142035
:101A1000C4EBC4019D4A02EB0111A1F8620031E15F
:101A2000C4EBC400994901EB001090F83000D8B124
:101A3000C4EBC401954A02EB0111488E00F054FB3F
:101A4000C4EBC401914A02EB011191F831108842B4
:101A50000AD1204600F0EAFB1520C4EBC4018B4AF2
:101A600002EB0111A1F862000CE1C4EBC40087494C
:101A700001EB0010B0F8600038B90F20C4EBC401CE
:101A8000824A02EB0111A1F86200FBE0C4EBC40042
:101A90007E4901EB001090F8300080B1C4EBC40126
:101AA0007A4A02EB0111488E00F01EFBC4EBC40120
:101AB000764A02EB011191F83110884219D0C4EB3B
:101AC000C400724901EB0010406AC4EBC4016F4AC4
:101AD00002EB011108614FF010412046FFF7A2FA16
:101AE0001720C4EBC401694A02EB0111A1F862009E
:101AF00018E0C4EBC400654901EB0010406AC4EB78
:101B0000C401624A02EB011108614FF01041204606
:101B1000FFF788FA1820C4EBC4015C4A02EB0111FC
:101B2000A1F86200AEE0C4EBC400584901EB00101C
:101B300090F83000B8B1C4EBC401544A02EB011173
:101B4000488E00F0D1FAC4EBC401504A02EB0111F7
:101B500091F83110884206D11820C4EBC40102EB81
:101B60000111A1F862008DE0C4EBC400474901EB0C
:101B7000001090F8300080B1C4EBC401434A02EB7E
:101B80000111488E00F0B0FAC4EBC4013F4A02EBE9
:101B9000011191F8311088420FD0204600F046FB29
:101BA0000EF0FEFB3A4941F824001920C4EBC401B1
:101BB000364A02EB0111A1F8620063E0C4EBC400F5
:101BC000324901EB0010B0F8600010BB0EF0E8FBEA
:101BD0002F4951F82410401A40F63401884218D396
:101BE000C4EBC400294901EB0010806AC4EBC401B6
:101BF000264A02EB011108614FF0E0412046FFF751
:101C000011FA1A20C4EBC401204A02EB0111A1F819
:101C1000620037E0C4EBC4001C4901EB001090F8EF
:101C20003000E8B1C4EBC401184A02EB0111488E40
:101C300000F05AFAC4EBC401144A02EB011191F806
:101C4000311000E00DE088420AD1204600F0EEFAA3
:101C50001B20C4EBC4010D4A02EB0111A1F8620084
:101C600010E0C4EBC400094901EB0010B0F86000BB
:101C700038B90F20C4EBC401044A02EB0111A1F8EA
:101C8000620000BF00BF00BFFFF7EABA5C6300203C
:101C9000AC6A002010B50446C4EBC400314901EB26
:101CA000001090F86C00012828D1C4EBC40001EBAF
:101CB000001090F83D0008B3C4EBC401294A02EBC0
:101CC000011191F8430000F00FFAC4EBC401254A5A
:101CD00002EB011191F8411088420FD14FF480714D
:101CE000204600F08FFA204600F0A0FA0720C4EB4F
:101CF000C4011C4A02EB011181F86400C4EBC4006A
:101D0000184901EB001090F96C00B0F1FF3F28D1A9
:101D1000C4EBC40001EB001090F83E0008B3C4EB24
:101D2000C401104A02EB011191F8440000F0DCF903
:101D3000C4EBC4010B4A02EB011191F84210884236
:101D40000FD14FF48051204600F05CFA204600F09D
:101D50006DFA0720C4EBC401024A02EB011181F8BD
:101D6000640010BD5C63002010B50446C4EBC400E1
:101D70002C4901EB001090F83F0020B3C4EBC400E5
:101D800001EB001090F86C0001281CD1C4EBC400DA
:101D900001EB0010806DC4EBC401224A02EB01117B
:101DA000896C88420FDD4FF40071204600F02AFA5A
:101DB000204600F03BFA0720C4EBC401194A02EBAD
:101DC000011181F86400C4EBC400164901EB001056
:101DD00090F8400028B3C4EBC40001EB001090F968
:101DE0006C00B0F1FF3F1CD1C4EBC40001EB00104C
:101DF000806DC4EBC4010B4A02EB0111C96C88422F
:101E00000FDA4FF40051204600F0FCF9204600F0B4
:101E10000DFA0720C4EBC401024A02EB011181F85C
:101E2000640010BD5C63002010B5034806F092FF0B
:101E3000024800F02BFA10BDC8160020D440002044
:101E4000704770B52DED028B04460D46F0EE408ACA
:101E5000B0EE608A082C02DBBDEC028B70BDB0EEE8
:101E6000680A204600F042F835B1012D0FD0032D4D
:101E700018D0042D1ED119E0B0EE480A204602F019
:101E8000C9F90646E0B2314605F0FCFD12E0B0EEBD
:101E9000480A204602F0BEF90646E0B2314605F097
:101EA00029FE07E0E0B205F05DFD03E0E0B206F0D8
:101EB000D3F800BF00BF00BFCEE7000070B50546F5
:101EC0000C46C5EBC500084901EB001080F86C40DA
:101ED000002C04DD0121284603F03AF903E000213B
:101EE000284603F035F970BD5C630020F0B52DED98
:101EF000068B87B00446B0EE408AB2EE040AB4EE18
:101F0000C08AF1EE10FA04DCB5EEC08AF1EE10FAE8
:101F100003D89FED6D0AB0EE408A04EB84016B4854
:101F200050F8310000EE100AF8EEC00A9FED681A72
:101F300080EE810AB4EEC80AF1EE10FA14DB04EB6D
:101F40008402624951F832001DF090FE41EC1A0BF8
:101F50009FED600B53EC102B1DF088FC41EC190B2E
:101F60001DF052FC08EE100A04EB8401574800EB08
:101F7000C10090ED040AF8EEC00A9FED551A80EEFC
:101F8000810AB4EEC80AF1EE10FA15DB04EB840204
:101F90004E4901EBC20108691DF068FE41EC1A0BC5
:101FA0009FED4C0B53EC102B1DF060FC41EC190B1A
:101FB0001DF02AFC08EE100A04EB8401434850F897
:101FC00031004FF47A714843444951F83410484382
:101FD00000EE100AF8EE400A404800EBC40090ED15
:101FE000011A80EE810ADFED3E0A80EE201ABCEE77
:101FF000C10A10EE105A9FED3B0A68EE000A3748FE
:1020000050F8340000EE100AB8EE400A60EE800A84
:10201000324800EBC40090ED011A80EE810ADFED3A
:10202000300A80EE201ABCEEC10A10EE106A04EBF2
:102030008401264800EBC10000694FF47A714843DF
:10204000264951F83410484300EE100AF8EE400AD1
:10205000224800EBC40090ED011A80EE810ADFED0A
:10206000200A80EE201AFCEEC18A002204EB8401D3
:10207000164800EBC10004EB8407C169134800EB6C
:10208000C700806903AB07C304EB84010F4800EB72
:10209000C1000692406904EB84020C4901EBC201C5
:1020A000C9680091CDED018A04EB8403074901EB77
:1020B000C3010290E0B233464A68294605F0F8FEB3
:1020C00007B0BDEC068BF0BDCDCCCC3D7419002023
:1020D0000000C8427B14AE47E17A843F44210020CF
:1020E0000000704200007A4410B50446802C04D2EF
:1020F000E0B206F0A3FCC0B210BD802C08D3902C37
:1021000006D2A4F18001C8B2FEF782FCC0B2F3E7A8
:10211000902C08D3A02C06D2A4F19001C8B207F0ED
:1021200077F8C0B2E8E7C02C09D3D02C07D2A4F1CD
:10213000C001C8B2002104F05DFDC0B2DCE7D02CC4
:1021400009D3E02C07D2A4F1D001C8B2012104F0D8
:1021500051FDC0B2D0E70020CEE7000000201BE018
:102160004FF4FA7200EB80030D4901EBC3018A6161
:10217000002200EB80030A4901EBC301CA6140F66B
:10218000C412084941F83020B2EE040A01EBC00144
:1021900081ED010A411CC8B20828E1DB704700004C
:1021A0007419002044210020C0EBC001104A02EB4A
:1021B00001110968C0EBC0020D4B03EB0212516024
:1021C000C0EBC0011A4602EB0111C968C0EBC002A6
:1021D00003EB02121161C0EBC0011A4602EB0111C0
:1021E0008969C0EBC00203EB0212D16170470000A5
:1021F0005C6300200146142901D214207047084670
:10220000FCE7000010B510280CDAC0EBC002064B4A
:1022100003EB0212926E0A43C0EBC003024C04EBC4
:1022200003139A6610BD00005C63002010B50446DD
:1022300020460BF085F910BDC0EBC001074A02EB48
:102240000111B1F8601039B90021C0EBC002034B95
:1022500003EB021282F86410704700005C630020F8
:10226000C0EBC001074A02EB0111B1F8601039B9A7
:102270000021C0EBC002034B03EB021282F8641092
:10228000704700005C6300207047000070B5054691
:1022900000245EE004EB840015F82000012811D131
:1022A00004EB840005EB8000407858B9002004EB73
:1022B000840105EB81018870012004EB840105EBAA
:1022C0008101487004EB840005EB80004078012810
:1022D00004D0022811D0032838D121E0DFED1E0AF6
:1022E0009FED1D0A032160B2FFF7ABFD022004EB56
:1022F000840105EB8101487028E0204605F022FBAF
:1023000068B9F0EE080AB6EE000A002160B2FFF7E5
:1023100098FD032004EB840105EB8101487015E072
:10232000204605F00FFB80B90021204605F0FAFC9D
:1023300004EB840105EB81001421FEF760FA012013
:1023400004EB840105EB8101887000BF00BF601CB5
:10235000C4B2082C9EDB70BD0000000070B586B0D2
:1023600006460D460024DDE004EB840035F820002D
:1023700030B101282AD002284ED0032825D185E08B
:1023800000200290039004900590009004EB8401DB
:1023900005EB810101900B7B04EB840105EB8101CE
:1023A0008A7AE0B2012105F051FC04EB840006EBCF
:1023B000C000006A04EB840106EBC1010090E0B2AA
:1023C00000234A6A194605F049FD99E00020029071
:1023D000039004900590009004EB840105EB8101CB
:1023E00001900B7B04EB840105EB81018A7AE0B25A
:1023F000012105F02BFC04EB840006EBC000006A11
:1024000004EB840106EBC1010090E0B201234A6AAB
:10241000194605F023FD73E004EB840005EB800012
:10242000007A04EB840105EB81018979012304EB37
:10243000840205EB82021279CDE90223CDE9041072
:1024400004EB840005EB8000807804EB840105EB4D
:102450008101CDE900300B7B04EB840105EB8101A8
:102460008A7AE0B2012105F0F1FB04EB840006EB6F
:10247000C000006A04EB840106EBC1010090E0B2E9
:1024800000234A6A194605F0E9FC39E004EB8400B0
:1024900005EB8000007A04EB840105EB810189796A
:1024A000012304EB840205EB82021279CDE90223B9
:1024B000CDE9041004EB840005EB8000807804EB88
:1024C000840105EB8101CDE900300B7B04EB840135
:1024D00005EB81018A7AE0B2012105F0B7FB04EB3C
:1024E000840006EBC000006A04EB840106EBC10126
:1024F0000090E0B201234A6A194605F0AFFC00BF24
:1025000000BF04EB840205EB8202917BE0B205F090
:1025100023FC04EB840205EB8202117CE0B205F09F
:1025200083FB641C082CFFF61FAF06B070BD0000D3
:102530002DE9F041C4B004460E46154698460027E2
:102540004FF4887220496846FEF705F98DF803407C
:102550008DF813408DF823408DF833408DF84340BB
:102560008DF853408DF863408DF873408DF88340AB
:102570008DF893408DF8A3408DF8B3408DF8C3409B
:102580008DF8D3408DF8E3408DF8F3408DF803418A
:102590004FF4887269462846FEF798F800BF0EE0AF
:1025A000A879032802D0A879042801D101206870F5
:1025B000284610358680701C86B2781CC7B2112F51
:1025C000EED344B0BDE8F0811400060870B54C4865
:1025D000D0F8E80303287CD001204A4988724A4990
:1025E000087B06F02BFA054614232A4600210A2010
:1025F0000EF08AFB60B1032005F0A4F940B120463B
:1026000002F098FD20B9032202210846FEF772FB72
:1026100000245CE0204602F08DFD3C4941F8240096
:10262000012104F10B00374A1154374911F82400F5
:1026300006F004FA054604F10B01C8B214232A4639
:1026400000210EF061FBA8B1204605F07BF988B1AE
:10265000204605F077F905280CD0204602F06AFDE7
:1026600040B9224602210846FEF744FB204605F009
:10267000F3FC00BF012104F10F00224A1154244948
:1026800011F8240006F0DAF9054604F10F01C8B28A
:1026900014232A4600210EF037FBB0B1204605F086
:1026A00051F990B1204605F04DF905280DD020468E
:1026B00002F040FD012808D1224603210220FEF746
:1026C00019FB204605F0C8FC00BF601CC4B2042CF6
:1026D000A0DB0DF06BFE4EF6602188420FD3002484
:1026E0000BE02046FEF794F9012804D1224601218F
:1026F0000420FEF7FFFA601CC4B2042CF1DB70BDAD
:10270000D4090020745F002020000020C03F00207A
:102710000000002010B5002412E0E0B205F002F93C
:10272000154941F82400084650F82410204601F0CD
:1027300089FD1148C83800EB840080ED000A641C54
:10274000082CEADB002407E0E0B204F0C1F90A49F2
:10275000C83141F82400641C042CF5DB002407E098
:10276000E0B205F0EFF881B2044820F81410641CC0
:10277000082CF5DB10BD0000640B0020380A002097
:102780002DE9F04F9DB004460426002704EB840198
:10279000CD4800680C3000EB810090F8018004EB1C
:1027A0008401C94800680C3000EB810090F8029069
:1027B00004EB8401C44800680C3000EB810090F801
:1027C00003A004EB8401C04800680C3000EB8100DA
:1027D00090F804B004EB8401BB4800680C3000EBB7
:1027E000810040791C9004EB8401B74800680C30EC
:1027F00000EB81008568B54A92E80B00D268CDE90C
:102800001A32CDE9180108EB4801C81DC11700EBC9
:102810005171C1F3C7018DF860108DF86340AB4B67
:1028200010330FCBCDE91623CDE9140109F10700D0
:10283000C11700EB5171C9108DF850108DF853403D
:10284000A24B20330FCBCDE91223CDE910018DF837
:1028500043409E4B30330FCBCDE90E23CDE90C0125
:102860000AF10700C11700EB5171C9108DF8301043
:102870008DF83340954B40330FCBCDE90A23CDE99A
:10288000080108F10700C11700EB5171C9108DF85C
:1028900020108DF823408D4B50330FCBCDE906230C
:1028A000CDE904018DF81340884B6033D3E9010270
:1028B0001968DB68CDE90223CDE900108DF80340EB
:1028C00040350A2C7DDA00BF35E03B462A463146CA
:1028D0002046FFF72DFE7C4800688078C1197A48B1
:1028E0000068D43000EB41100560774800688078BC
:1028F000C11975480068D43000EB411047770021BA
:10290000714800688078C2196F480068D43000EBC5
:10291000421001776C4800688078C1196A480068E5
:10292000D43000EB4110846006F1110086B205F549
:102930008875781CC7B24745C7DBB8F1000F1FD0B8
:10294000102218A92846FDF7C1FE002711E05E48B5
:10295000006881785C480068D43000EB4110456025
:10296000594800688078401C574909688870781C6D
:10297000C7B24745EBDB284610358680701C86B20F
:10298000B9F1000F10D0102214A92846FDF79EFEC1
:102990004D48006800F2D45000EB04100560284652
:1029A00010358680701C86B2B8F1000F12D010224C
:1029B00010A92846FDF78AFE4348006800F2D4506B
:1029C00000E07DE000EB041045602846103586806D
:1029D000701C86B2BAF1000F12D010220CA9284642
:1029E000FDF774FE3848006800F2D45000EB041084
:1029F000856001206870284610358680701C86B27C
:102A0000B8F1000F12D0102208A92846FDF75EFE8B
:102A10002D48006800F2D45000EB0410C56001207E
:102A20006870284610358680701C86B2BBF1000F96
:102A300020D000271CE0102204A92846FDF746FEFE
:102A400004EB8401204800680C3000EB8100C06872
:102A500038B904EB84011C4800680C3000EB81009D
:102A6000C560284610358680701C86B2781CC7B2B7
:102A70005F45E0DB1C9818B300271EE01022694672
:102A80002846FDF723FE04EB84010F4800680C3054
:102A900000EB8100006938B904EB84010A48006842
:102AA0000C3000EB8100056101206870284610356C
:102AB0008680701C86B2781CC7B21C988742DDDB0A
:102AC0001DB0BDE8F08F00005C0100202401060865
:102AD00010B5122005F0B2FF0446C823224600219B
:102AE00008460EF011F940B95C48C8230121D0F81E
:102AF000F82704200EF008F988B35948D0F8E80305
:102B0000012819D114200AF041FA58B90221544879
:102B1000C0F8B81B0121C0F824142B214F48C0F87D
:102B2000041804E0012200210220FEF7E3F800214E
:102B30004A48C0F8F81712E04948D0F8E8030228DC
:102B40000DD101214648C0F8B81B00214348C0F808
:102B500004184348C0F824144048C0F8F81713205C
:102B600005F06CFF0446C8232246002101200EF028
:102B7000CBF8A8B13A48D0F8E803022810D0394879
:102B800090F8C80060B914200AF000FA20B90121B9
:102B900014200AF009FA03E0002114200AF004FAD4
:102BA000142005F04BFF0446C823224600210220D2
:102BB0000EF0AAF8A8B12A48D0F8E803022810D0ED
:102BC000284890F8C80060B913200AF0DFF920B94E
:102BD000012113200AF0E8F903E0002113200AF094
:102BE000E3F91F48D0F85C03032804D80C2005F053
:102BF00025FF01280DD104211948C0F8B81B0C206D
:102C000005F01CFF012804D1012200210320FEF75A
:102C100071F80C2005F012FF0446002322461946E5
:102C200003200EF071F848B100210C48C0F80418D8
:102C30000B48C0F824140121C0F8B81B0848D0F88C
:102C4000E803012808D10648D0F85C03012803D91D
:102C500000210348C0F8241410BD000014290020EE
:102C6000D4090020D03F00202DE9FC4704460D4642
:102C700016461F46DDF828904FF0000814B10DB13C
:102C800006B117B90120BDE8FC87601EC4B2681EFA
:102C9000C5B2701EC6B2781E87B201206D49088089
:102CA0000880022100230A46CDE900106A4804F09A
:102CB0006BFB0120022100230A46CDE900100146EA
:102CC000654804F061FB09220121634804F03CFBE4
:102CD00009220021604804F037FB01205F49088089
:102CE00000205F4908600846006840F00100086065
:102CF00008E008F101001FFA80F8B8F1640F01DD67
:102D00000220C0E75648001D006800F001000028BE
:102D1000EFD053480068524908600846006840F008
:102D2000400008600846006808600846006840F0F7
:102D300010000860084600680860084600680860DF
:102D4000002047491C3108600846006840EA897045
:102D500008600846006840EA0460086008460068A9
:102D600040EA055008600846006840EA06400860EE
:102D700008460068384308603948006820F00100C0
:102D80003749086009E008F101001FFA80F84FF6A2
:102D9000F070804501DD032075E73148001D0068B3
:102DA00000F001000028EED12E48006840F001003C
:102DB0002C4908602B481C30006820F0010029498C
:102DC0001C31086027480C30006840F0010025499C
:102DD0000C3108602348001D00682249091D086065
:102DE0002048143000681F491431086000201D4934
:102DF0004031086000211B484430016019481C30F4
:102E0000006840F0010017491C310860154800684F
:102E100000201449086012481430006840F0010096
:102E20000F4914310860022313220021012006F00B
:102E3000EDFB0B481430006840F0020008491431E3
:102E40000860022314220021012006F0DFFB00208D
:102E500019E700000C064742000C02406408474294
:102E60000064004000660040014621B90748006840
:102E700000F003007047012905D10448001D0068D7
:102E800000F00300F6E70020F4E700000C640040C7
:102E900000B500F007F801200149487400BD0000AA
:102EA000B46B00200FB50020FFF7DEFF10B9002043
:102EB00004B000BD0648411E02AB03AACDE90010D4
:102EC000411F002000F006F801481938007EEFE7A6
:102ED000CD6B0020F0B5DDE90554324E06EB00164F
:102EE000366806F004061670167836B92D4E06EBD5
:102EF00000163668760D0E6005E02A4E06EB0016C9
:102F00003668F6080E60274E06EB0016366806F0A7
:102F100002061E70234E06EB0016766806F00F06BA
:102F20002E70204E06EB0016B66826701D4E06EB7E
:102F30000016B668360A66701A4E06EB0016B668BA
:102F4000360CA670174E06EB0016B668360EE67005
:102F5000144E06EB0016F6682671124E06EB0016AC
:102F6000F668360A66710F4E06EB0016F668360CE8
:102F7000A6710C4E06EB0016F668360EE67130B9F7
:102F8000094E366846F02006074F3E6009E00128EA
:102F900007D1054E361D366846F02006024F3F1D0C
:102FA0003E60F0BDB06500400C640040124800680F
:102FB00000F0010028B11048006840F001000E49FF
:102FC00008600D48006800F4807028B10A48006865
:102FD00040F48070084908600748006800F48030B9
:102FE00028B10548006840F480300349086000209B
:102FF000024908607047000008640040B46B00207C
:10300000F0B505460E46059C3748006800F0806024
:1030100008B1002101E0FF20F0BD0027334800EB9C
:10302000011007601EB9C5F30A056D0502E025F021
:103030006045ED002D4800EB0110006828432B4F40
:1030400007EB01173860294800EB0110006840EADF
:103050008607264800EB01100760244800EB0110AA
:10306000006840EA4207214800EB0110076003F0C6
:103070000F031E4800EB0110406820F00F071B48AB
:1030800000EB01104760194800EB0110406818433D
:10309000164F07EB01177860E0790006A77940EA40
:1030A0000740677940EA0720277938430F4F07EB3D
:1030B0000117F860E0780006A77840EA07406778D3
:1030C00040EA072027783843084F07EB0117B8601C
:1030D000064800EB0110006840F00107034800EBD0
:1030E00001100760084697E70864004080650040CB
:1030F0002DE9F04704460D469146C4F30466C4F337
:103100000A2704F0FF0868B21649087008460078DC
:1031100030B115480068007891F9001088421ED13E
:103120001248007886421AD111480088874216D189
:1031300010480078804512D10B480068C07948B922
:10314000084890F900200C49074800680830FDF74E
:10315000BDFA02E00020BDE8F0870020FBE74FF059
:10316000FF30F8E7500100203C010020340100202E
:1031700036010020390100204001002010B523480D
:103180000068C07918B90020214908700EE01F4876
:103190000068007840B21E490870084690F9002087
:1031A0001A48016808311B48FDF790FA1748006873
:1031B000C078194908701548006880881749088048
:1031C000174800781649087010480068C0791549FA
:1031D000087011480078C006C008097801F00101A4
:1031E00040EAC1500D490988C1F30A0140EA0120B3
:1031F0000B49097808430C49086005480178054ADD
:103200000948006800F0E0FD10BD00003C0100200E
:103210005101002048010020340100203601002027
:1032200039010020380100205801002010B5504815
:10323000006828B14E48406810B901204C494860E8
:103240004B484068012802D002287DD10EE000F0F2
:1032500093FD50B9FFF792FF0DF0A2F845490860C1
:1032600043484068401C424948607FE04249434827
:1032700000F066FD42490870084690F900000028F9
:1032800040DB084601783C4A3C480068FFF730FFC5
:1032900078B93C480068807830B13A480068807856
:1032A000401E38490968887000203149086048602C
:1032B00028E0344800688078401C324909688870EA
:1032C000304800688079032804D02E48006880794F
:1032D000042802D10120264948602A4800688078E5
:1032E00005280FDB00202249086048602648006856
:1032F000806824490968CA7801219140084322491D
:10330000096888600DF04CF81A490968401A0F28BE
:103310002AD91C4800688078401C1A4909688870BE
:10332000184800688079032804D01648006880791E
:10333000042802D100200E494860124800688078B5
:10334000052811DB002000E00FE009490860486013
:103350000D48006880680B490968CA7801219140CE
:10336000084309490968886000E000BF00BF10BD3C
:10337000640100207401002040010020540100205D
:10338000500100203C0100205C01002070B586B097
:103390000446002508E00021FE4800EBC41064301C
:1033A00040F82510681CC5B2072DF4DB204609F053
:1033B0008BFFF84901EBC4118865F64800EBC41097
:1033C000007800287ED1F34800EBC410C0690028C3
:1033D00077D0F04800EBC410006A002871D0ED48A7
:1033E00000EBC410C068EB4901EBC4118968401AB6
:1033F00000EE100AB8EE400ADFEDE70A60EE200AA0
:10340000E44800EBC41090ED070AB8EE400A80EEE5
:10341000801ABCEEC10ADF4800EBC41080ED050A3B
:10342000DC4800EBC4104369DA4800EBC410C26802
:10343000D84800EBC410816802A802F09DF8DDE9CD
:103440000201CDE90401D34800EBC410059981665F
:10345000D04800EBC410C168CE4800EBC41000692E
:10346000081A00EE100AB8EE400ADFEDCB0A60EE53
:10347000200AC84800EBC41090ED080AB8EE400AD4
:1034800080EE801ABCEEC10AC24800EBC41080ED89
:10349000060AC04800EBC4108369BE4800EBC410A4
:1034A0000269BC4800EBC410C16802A802F0F6FB38
:1034B000DDE90201CDE90401B64800EBC41005992D
:1034C000816700E0A2E0B34800EBC410816EB14810
:1034D00000EBC410806F0144AE4800EBC410806D57
:1034E000814212D8AB4800EBC410816DA94800EBB3
:1034F000C410806E091AA74800EBC410806F091A27
:10350000A44800EBC410016764E2A24800EBC410B9
:1035100090ED160AB8EE400ADFEDA00A60EE200A30
:103520009C4800EBC41090ED070AB8EE400A60EE2C
:10353000800A984800EBC410C169964800EBC4109B
:10354000006A084400EE100AB8EE400A80EE801AC5
:10355000BCEEC10A10EE106A8E4800EBC41042693E
:103560008C4800EBC4103346816802A80AF006F8C4
:10357000DDE90201CDE90401864800EBC41004999D
:10358000C160844800EBC41005998166814800EB56
:10359000C41083697F4800EBC41002697D4800EBCA
:1035A000C410C16802A802F079FBDDE90201CDE98F
:1035B0000401784800EBC41005998167754800EB59
:1035C000C410816E734800EBC410806F01447148D1
:1035D00000EBC410806D814212D86E4800EBC4101D
:1035E000816D6C4800EBC410806E091A694800EBCD
:1035F000C410806F091A674800EBC41001679BE391
:103600000021644800EBC410016795E3614800EBBA
:10361000C41000780128F2D15E4800EBC410C069E4
:103620000028ECD05B4800EBC410006A0028E6D00C
:10363000584800EBC41090ED070AB8EE400ADFEDE1
:10364000580A20EE200ADFED540A80EE201A514875
:1036500000EBC41080ED091A4E4800EBC410C0689E
:103660004C4901EBC4118968401A00EE100AB8EE0B
:10367000400ADFED490A60EE200A464800EBC4101C
:1036800090ED070AB8EE400A9FED461A20EE010AB7
:1036900080EE801ABDEEC10A3E4800EBC41080EDFA
:1036A000050A3C4800EBC41090ED050AB8EE400A4C
:1036B000384800EBC410D0ED090A9FED371A20EE10
:1036C000811AC0EE010AB6EE000A30EE800ABDEEA5
:1036D000C00A304800EBC41080ED0B0A2D4800EB07
:1036E000C41090ED080AB8EE400ADFED2D0A20EE76
:1036F000200ADFED290A80EE201A264800EBC410CC
:1037000080ED0A1A234800EBC410C168214800EB81
:10371000C4100069081A00EE100AB8EE400ADFED86
:103720001E0A60EE200A1B4800EBC41090ED080A48
:10373000B8EE400A9FED1B1A20EE010A80EE801AB7
:10374000BDEEC10A134800EBC41080ED060A114813
:1037500000EBC41090ED060AB8EE400A0D4800EBED
:10376000C410D0ED0A0A9FED0C1A20EE811AC0EEAB
:10377000010AB6EE000A30EE800ABDEEC00A054826
:1037800000EBC41080ED0C0A024800EBC410C36AC1
:10379000004809E0646C002000007A446666663FD9
:1037A000CDCCCC3E9A99193F00EBC4104269FE483B
:1037B00000EBC410816802A801F05AFEDDE90201A5
:1037C000CDE90401F84800EBC4100499C163F64840
:1037D00000EBC41005994166F34800EBC410C068C3
:1037E000F14901EBC41189680144EF4800EBC410B2
:1037F000C06B091AEC4800EBC4100164EA4800EB06
:10380000C4104369E84800EBC410026CE64800EBC2
:10381000C410C16B02A801F0CBFFDDE90201CDE9C4
:103820000401E14800EBC41004990164DE4800EB98
:10383000C41005998166DC4800EBC410C06A009092
:10384000D94800EBC4104369D74800EBC410C268E4
:10385000D54800EBC410016C02A801F05DFDDDE964
:103860000201CDE90401D04800EBC4100599C166FE
:10387000CD4800EBC410036BCB4800EBC410826949
:10388000C94800EBC410C16802A802F05DF9DDE987
:103890000201CDE90401C44800EBC410049941645D
:1038A000C14800EBC41005994167BF4800EBC41044
:1038B000C168BD4800EBC41000690144BA4800EB80
:1038C000C410406C091AB84800EBC4108164B648B3
:1038D00000EBC4108369B44800EBC410826CB2489A
:1038E00000EBC410416C02A802F03AFBDDE90201D2
:1038F000CDE90401AC4800EBC41004998164AA48E6
:1039000000EBC41005998167A74800EBC410006B59
:103910000090A54800EBC4108369A34800EBC410D5
:103920000269A14800EBC410816C02A802F04EF8B5
:10393000DDE90201CDE904019B4800EBC4100599C3
:10394000C167994800EBC410416E974800EBC41062
:10395000806E0144944800EBC410C06E014492484C
:1039600000EBC410406F01448F4800EBC410806F1F
:1039700001448D4800EBC410C06F01448A4800EB3D
:10398000C410806D814226D2874800EBC410416E7E
:10399000854800EBC410806E0144834800EBC410DE
:1039A000C06E0144804800EBC410406F01447E4863
:1039B00000EBC410806F01447B4800EBC410C06F63
:1039C0000144794800EBC410806D411A764800EB41
:1039D000C4100167B0E10021734800EBC410816698
:1039E000714800EBC41081676F4800EBC410806D14
:1039F0006D4901EBC411C96948436B4901EBC4111E
:103A0000CA69694901EBC411096A1144B0FBF1F0BC
:103A100005909DED050AB8EE400A5FEDA10A60EE43
:103A2000200A614800EBC41090ED070AB8EE401A76
:103A300080EE810AF6EE000A30EE200ABDEEC00AE2
:103A400010EE100A584901EBC4118968884208D267
:103A5000554800EBC4108168534800EBC410C160A6
:103A600024E09DED050AB8EE400ADFED500A60EE55
:103A7000200A4D4800EBC41090ED070AB8EE400A4A
:103A800080EE801A484800EBC41090ED020AB8EEB0
:103A9000400A31EE400AF6EE000A30EE200ABDEE92
:103AA000C00A414800EBC41080ED030A3E4800EB19
:103AB000C410C0683C4901EBC4118968884212D126
:103AC000002508E00021384800EBC410643040F8BD
:103AD0002510681CC5B2072DF4DB0021324800EB2D
:103AE000C410016728E1304800EBC410C0682E49BB
:103AF00001EBC4118968401A00EE100AB8EE400AC2
:103B0000DFED2B0A60EE200A274800EBC41090ED91
:103B1000070AB8EE400A80EE801ABCEEC10A2248BD
:103B200000EBC41080ED0B0A1F4800EBC410C06A04
:103B30001D4901EBC411C969484341081A4800EB0B
:103B4000C4104161184800EBC41090ED070AF8EE6C
:103B5000400A154800EBC41090ED080AB8EE400A80
:103B600080EE801A104800EBC41090ED0B0AB8EEFE
:103B7000400A61EE000A0C4800EBC41090ED070A01
:103B8000B8EE401A084800EBC41090ED080AB8EEF1
:103B9000400AC1EE001A20EEA10ABCEEC00A02489B
:103BA00000EBC41006E00000646C00200000FA4442
:103BB0000000C84380ED0C0A604800EBC410006BA5
:103BC0005E4901EBC411096A484341085B4800EBB8
:103BD000C41081610021594800EBC4108166574828
:103BE00000EBC4108167554800EBC410C36A53480A
:103BF00000EBC4104269514800EBC410816802A870
:103C000001F036FCDDE90201CDE904014B4800EB8F
:103C1000C4100499C163494800EBC410059941667A
:103C2000464800EBC410C06A0090444800EBC41042
:103C30004369424800EBC410C268404800EBC4101E
:103C4000C16B02A801F068FBDDE90201CDE90401C6
:103C50003A4800EBC4100599C166384800EBC4101F
:103C6000036B364800EBC4108269344800EBC41083
:103C7000C16802A801F068FFDDE90201CDE9040195
:103C80002E4800EBC410049941642C4800EBC4108A
:103C900005994167294800EBC410006B0090274844
:103CA00000EBC4108369254800EBC4100269234867
:103CB00000EBC410416C02A801F088FEDDE90201AE
:103CC000CDE904011D4800EBC4100599C1671B48EC
:103CD00000EBC410416E194800EBC410C06E0144E3
:103CE000164800EBC410406F0144144800EBC410A8
:103CF000C06F0144114800EBC410806D81421BD29B
:103D00000E4800EBC410416E0C4800EBC410C06EAE
:103D100001440A4800EBC410406F0144074800EB1F
:103D2000C410C06F0144054800EBC410806D411AF7
:103D3000024800EBC410016706B070BD646C00203F
:103D400070B504460D460B48407C78B10020094907
:103D500048740846406920600846027E19312846AA
:103D6000FCF7B4FC0348007E40B270BD4FF0FF305A
:103D7000FBE70000B46B00200148007870470000AA
:103D8000B46B002038B50446FA2C08D100200C236F
:103D90000A22072100900120FEF766FF13E0B4F528
:103DA0007A7F08D1002003230A22072100900120F6
:103DB000FEF75AFF07E0002006230A2207210090A1
:103DC0000120FEF751FF38BDF8B505460C461646F2
:103DD0001748006848BB012015490860084645603F
:103DE000224631460930FCF771FC11480472006824
:103DF000C8B10F484068B0F5006F0AD20C480930CE
:103E00000B4900900B7A002248681146FFF7F8F83A
:103E100009E007480930064900900B7A00224868FB
:103E20000121FFF7EDF80020F8BD4FF0FF30FBE770
:103E3000B46B002000B50B490B4811F029FD0B496C
:103E4000098888420BD10749891E074811F020FDD7
:103E50000649891E0988884201D1002000BD4FF023
:103E6000FF30FBE7FEFF030000000408FEFF070829
:103E700000B50B490B4811F00BFD0B49098888422E
:103E80000BD10749891E074811F002FD0649891E1A
:103E90000988884201D1002000BD4FF0FF30FBE7C8
:103EA000FEFF030000000808FEFF0B0870B5054682
:103EB000002408E0204603F045FD10B14FF0FF302C
:103EC00070BD601CC4B2AC42F4DB0020F8E710B552
:103ED0002DED028B0446B0EE408AB0EE000A68EE8B
:103EE000000A00EE104AB8EE400A80EE201AF0EE0A
:103EF000418AB0EE680A11F06DF8F0EE000A20EE8B
:103F0000200ABDEC028B10BD00224FF4803105E089
:103F10000A48006800F0800000B103E0081EA1F12B
:103F20000101F5D100BF09B90320704740F2FF50ED
:103F3000024B1B1D18601046F7E70000342C0140AF
:103F4000024605E01548016801F0450000B100E0B7
:103F5000F8E700BF01F0040028B104200F4B1B1D3F
:103F600018600320704701F0010020B101200B4BC5
:103F70001B1D1860F6E7094824380068904201D0FC
:103F80001020EFE740F2FF50044B1B1D1860034860
:103F90002038006808231840C0B2E3E7342C014001
:103FA00010B500204FF4803205E0164B196801F07F
:103FB000450303B103E0131EA2F10102F5D100BFD6
:103FC00012B101F004034BB103200E4B1B1D1B6803
:103FD00043F004030B4C241D236010BD01F00103CA
:103FE00043B10120074B1B1D1B6843F00103054C27
:103FF000241D236040F2FF53024C241D236000BFA8
:10400000EBE70000342C014005E00E48016801F0A8
:10401000450000B100E0F8E700BF01F0040048B13E
:104020000848001D006840F00400064A121D106098
:104030000320704740F2FF50024A121D106000201A
:10404000F7E70000342C014070B503460C4600250C
:1040500005E02448026802F0450000B100E0F8E7FE
:1040600000BF02F0040048B11E48001D006840F087
:1040700004001C4E361D3060032070BD02F00100AC
:1040800048B11848001D006840F00100154E361D6B
:1040900030600120F1E7134824380068984201D0CD
:1040A0001020EAE740F2FF500E4E361D30600D48FA
:1040B0002038016801F4604018B9080C20802846B7
:1040C000DBE701F4005008B11320D6E701F480408B
:1040D00008B11020D1E701F4004008B10F20CCE76F
:1040E0002846CAE7342C014010B500204FF4803236
:1040F00005E0134B196801F0450303B103E0131EFB
:10410000A2F10102F5D100BF12B101F004034BB1DD
:1041100003200B4B1B1D1B6843F00403084C241D9C
:10412000236010BD01F0400343B10020044B1B1D70
:104130001B6843F04003024C241D236000BFF0E7DE
:10414000342C014000213248A0F860190421A0F865
:1041500062190021A0F86419A0F86619A0F868197E
:10416000A0F86A19A0F86C19A0F86E190221A0F83D
:1041700070190021A0F874190521A0F87619002102
:10418000A0F878190121A0F87A190021A0F87C196B
:104190000121A0F87E190021A0F88019A0F8821949
:1041A0000221A0F884190021A0F888190621A0F89E
:1041B0008A190021A0F88C190221A0F88E1900217B
:1041C000A0F890190221A0F892190021A0F89419E2
:1041D000A0F896190221A0F898190021A0F89C19BE
:1041E0000721A0F89E190021A0F8A0190821A0F825
:1041F000A2190021A0F8A4190321A0F8A6190021F2
:10420000A0F8A819A0F8AA190221A0F8AC197047C3
:104210007419002001460A4850F8310000EE900A57
:10422000F8EE600A60EE800A054800EBC10090EDF0
:10423000011AC0EE811AFDEEE10A10EE900A7047F5
:10424000442100200A4A02EBC002D2ED010A00EE2E
:10425000101AB8EEC00A60EE800A054A52F8302003
:1042600000EE102AB8EE401A80EE810A7047000076
:104270004421002010B50446204609F011F8FD49FC
:1042800001EBC4114865FB4800EBC410416DF948CF
:1042900000EBC410806D814204D10020F54901EB90
:1042A000C4114870F34800EBC410007800287DD199
:1042B000F04800EBC4104078022804D0042876D0DF
:1042C000062875D1F1E0EB4800EBC410416DE948D8
:1042D00000EBC410006F0144E64800EBC410806F8F
:1042E0000144E44800EBC410806D814265D8E14888
:1042F00000EBC410416DDF4800EBC410C06D81427B
:104300006DD3DC4800EBC41090ED050AB8EE400A0E
:10431000F6EE000A20EE200A9FEDD71AC0EE010A41
:10432000B6EE000A30EE800ABDEEC00A10EE100AAA
:10433000D04901EBC411C96C0844CE4901EBC4114A
:10434000C864CC4800EBC410C16CCA4800EBC41070
:10435000C068814204D2C74800EBC410C06C03E0BF
:10436000C44800EBC410C068C24901EBC411C86462
:10437000C04800EBC41090ED130AB8EE400AF6EE08
:10438000000A60EE200A9FEDBC1A80EE810AF6EE6C
:10439000000A30EE200ABDEEC00A10EE100AB54940
:1043A00001EBC411C96D0144B24802E0E3E017E03B
:1043B000E0E000EBC410C16511E0AE4800EBC410B2
:1043C000006F60B1AB4800EBC410C068A94901EBB5
:1043D000C411C8640420A74901EBC4114870C9E0A6
:1043E000A44800EBC410416DA24800EBC410806FDC
:1043F0000144A04800EBC410806D814254D39D4815
:1044000000EBC410816E9B4800EBC410006F0144A8
:10441000984800EBC410C165964800EBC41090EDBD
:10442000060AB8EE400AF6EE000A20EE200ADFED9A
:10443000920A80EE201AB6EE000A71EE000A8D484C
:1044400000EBC41090ED130AB8EE400A30EE600A9B
:10445000BDEEC00A874800EBC41080ED130A854802
:1044600000EBC41090ED130AB8EE400AF6EE000A15
:1044700020EE200A9FED801AC0EE010AB6EE000A77
:1044800030EE800ABDEEC00A10EE100A794901EB49
:10449000C411C96D0144774800EBC410C165062002
:1044A000744901EBC411487064E0724800EBC41019
:1044B000416D704800EBC410C06D814259D36D4806
:1044C00000EBC41090ED060AB8EE400AF6EE000AC2
:1044D00020EE200ADFED680A80EE201AB6EE000A10
:1044E00071EE000A634800EBC41090ED130AB8EEB9
:1044F000400A30EE600ABDEEC00A5E4800EBC41010
:1045000080ED130A5B4800EBC410C16C594800EB06
:10451000C4100069814204D9564800EBC410C06C35
:1045200003E0544800EBC4100069524901EBC41188
:10453000C864504800EBC41090ED130AB8EE400A6E
:10454000F6EE000A20EE200ADFED4B0A80EE201A7C
:10455000B6EE000A31EE000ABDEEC00A10EE100AF7
:10456000444901EBC411C96D0144424800EBC41039
:10457000C16500BFFDE33F4800EBC4104078082848
:104580007CD2DFE800F07B0483F8F7F6F5F43948D5
:1045900000EBC410416D374800EBC410406E8142FF
:1045A0006ED2344800EBC410416D324800EBC410A9
:1045B000C06D814269D32F4800EBC41090ED0D0A05
:1045C000B8EE400AF6EE000A60EE200A9FED2A1AC5
:1045D00080EE810AF6EE000A30EE200ABDEEC00A37
:1045E00010EE100A234901EBC411C96C084421499B
:1045F00001EBC411C8641F4800EBC41090ED130A0E
:10460000B8EE400AF6EE000A60EE200A9FED1A1A94
:1046100080EE810AF6EE000A30EE200ABDEEC00AF6
:1046200010EE100A134901EBC411C96D0144114881
:1046300000EBC410C1650F4800EBC410416B0D487E
:1046400000EBC41090ED0B0AB8EE400AF6EE000A3B
:1046500060EE200AB7EE001AB6EE000A00EE810AFC
:10466000BDEEC00A10EE100A0844024901EBC41165
:1046700048630AE0646C002000007A44FEE3FFE730
:104680000220FE4901EBC411487025E2FB4800EB13
:10469000C410416EF94800EBC410806E0844F7491D
:1046A00001EBC411496D884266D9F44800EBC4108F
:1046B000416DF24800EBC410C06D814256D3EF4803
:1046C00000EBC41090ED050AB8EE400AF6EE000AC1
:1046D00020EE200A5FED180A80EE201AB6EE000ADE
:1046E00031EE000ABDEEC00A10EE100AE34901EBFC
:1046F000C411C96C0844E14901EBC411C864DF4826
:1047000000EBC410C16CDD4800EBC410C0688142EE
:1047100004D2DA4800EBC410C06C03E0D74800EBC9
:10472000C410C068D54901EBC411C864D34800EB7C
:10473000C41090ED130AB8EE400AF6EE000A20EE1F
:10474000200A5FED330A80EE201AB6EE000A31EE41
:10475000000ABDEEC00A10EE100AC84901EBC411F0
:10476000C96D0144C54800EBC410C16559E0E6E2DB
:1047700043E2B2E1FEE055E0C04800EBC41090ED2A
:10478000050AB8EE400ABD4800EBC410D0ED0B0A94
:10479000F8EE600AB6EE001A60EE810AB7EE001A73
:1047A00000EEC10AF6EE000A30EE200ABDEEC00AA5
:1047B000B24800EBC41080ED0D0AB04800EBC41005
:1047C000806E08B3AD4800EBC41090ED050AB8EE5A
:1047D000400AAA4800EBC410D0ED0B0AF8EE600ABC
:1047E000B6EE001A60EE810AB7EE001A00EEC10ABA
:1047F000F6EE000A30EE200ABDEEC00A9F4800EB3C
:10480000C41080ED0D0A07E09C4800EBC41040691D
:104810009A4901EBC41148630320984901EBC41184
:10482000487079E3954800EBC410416E934800EB63
:10483000C410806E0144914800EBC410C06E08445F
:104840008E4901EBC411496D88427DD98B4800EB3C
:10485000C410416D894800EBC410C06D814274D30F
:10486000864800EBC41090ED0D0AB8EE400AF6EE53
:10487000000A60EE200A1FED801A80EE810AF6EE33
:10488000000A30EE200ABDEEC00A10EE100A7B4985
:1048900001EBC411C96C0844784901EBC411C86428
:1048A000764800EBC410C16C744800EBC410C068BB
:1048B000814204D2714800EBC410C06C03E06F4821
:1048C00000EBC410C0686D4901EBC411C8646B48AB
:1048D00000EBC41090ED130AB8EE400AF6EE000AA1
:1048E00060EE200A1FED9C1A80EE810AF6EE000AA7
:1048F00030EE200ABDEEC00A10EE100A5F4901EB4F
:10490000C411C96D01445D4800EBC410C1655B482A
:1049100000EBC41090ED0D0AB8EE400A574800EBCA
:10492000C410D0ED0B0AF8EE600AB6EE001A60EE85
:10493000810AB7EE001A00EEC10AF6EE000A30EE68
:10494000200ABDEEC00A01E006E012E04B4800EB91
:10495000C41080ED0D0A0CE0484800EBC410C0689C
:10496000464901EBC411C8640420444901EBC41159
:104970004870D1E2414800EBC410416E3F4800EB63
:10498000C410806E01443D4800EBC410C06E014469
:104990003A4800EBC410006F0844384901EBC411D9
:1049A000496D88426CD8354800EBC410416E3348DD
:1049B00000EBC410806E0144304800EBC410C06EA0
:1049C00001442E4800EBC410006F01442B4800EB5B
:1049D000C410C165294800EBC41090ED0C0AB8EE74
:1049E000400AF6EE000A60EE200AB7EE001AB6EEB4
:1049F000000A00EE810ABDEEC00A204800EBC41098
:104A000080ED0E0A1D4800EBC41090ED0E0AB8EEC2
:104A1000400AF6EE000A20EE200A1FEDE91AC0EE69
:104A2000010A164800EBC41090ED130AB8EE400AD4
:104A300030EE600AF6EE000A30EE200ABDEEC00A43
:104A40000E4800EBC41080ED130A0C4800EBC410B4
:104A500090ED130AB8EE400AF6EE000A60EE200A66
:104A60001FEDFB1A80EE810AF6EE000A30EE200AF6
:104A7000BDEEC00A10EE100A004902E0646C00208E
:104A80002AE001EBC411C96D0144FD4800EBC410DC
:104A9000C165FB4800EBC410816BF94800EBC41002
:104AA00090ED0C0AB8EE400AF6EE000A60EE200A1D
:104AB000B7EE001AB6EE000A00EE810ABDEEC00A9B
:104AC00010EE100A0144EE4800EBC410816305208B
:104AD000EB4901EBC41148701EE2E94800EBC41039
:104AE000416EE74800EBC410806E0144E44800EBDF
:104AF000C410C06E0144E24800EBC410006F0144D2
:104B0000DF4800EBC410406F0844DD4901EBC411DD
:104B1000496D88426BD9DA4800EBC410416DD84822
:104B200000EBC410C06D814266D3D54800EBC410C1
:104B300090ED0E0AB8EE400AF6EE000A20EE200ACA
:104B40009FEDD01AC0EE010ACD4800EBC41090EDE5
:104B5000130AB8EE400A30EE600AF6EE000A30EEB4
:104B6000200ABDEEC00AC64800EBC41080ED130A4F
:104B7000C34800EBC41090ED130AB8EE400AF6EEFD
:104B8000000A60EE200A9FEDBF1A80EE810AF6EE61
:104B9000000A30EE200ABDEEC00A10EE100AB84935
:104BA00001EBC411C96D0144B54800EBC410C165E7
:104BB000B34800EBC410816BB14800EBC41090ED1A
:104BC0000C0AB8EE400AF6EE000A60EE200AB7EED4
:104BD000001AB6EE000A00EE810ABDEEC00A10EE21
:104BE000100A0144A64800EBC410816304E00620CB
:104BF000A34901EBC41148708EE1A14800EBC41039
:104C0000416E9F4800EBC410806E01449C4800EB4D
:104C1000C410C06E01449A4800EBC410006F0144F8
:104C2000974800EBC410406F0144954800EBC41056
:104C3000806F0844924901EBC411496D88424DD9F7
:104C40008F4800EBC410416D8D4800EBC410C06D5F
:104C5000814273D38A4800EBC41090ED060AB8EE87
:104C6000400AF6EE000A20EE200A9FED861AC0EEFA
:104C7000010A834800EBC41090ED130AB8EE400A15
:104C800030EE600AF6EE000A30EE200ABDEEC00AF1
:104C90007B4800EBC41080ED130A794800EBC41088
:104CA00090ED130AB8EE400AF6EE000A60EE200A14
:104CB0009FED741A80EE810AF6EE000A30EE200AAB
:104CC000BDEEC00A10EE100A6D4901EBC411C96DAA
:104CD00001446B4800EBC410C1652FE0684800EB4D
:104CE000C410806FE8B1664800EBC41090ED060A6E
:104CF000B8EE400A624800EBC410D0ED0C0AF8EEA2
:104D0000600AB6EE001A00EEC10AF6EE000A30EEB6
:104D1000200ABDEEC00A5A4800EBC41080ED0E0A0E
:104D200007E0574800EBC4108169554800EBC410F8
:104D300081630720524901EBC4114870ECE05048F0
:104D400000EBC410416E4E4800EBC410806E01446D
:104D50004B4800EBC410C06E0144494800EBC4103E
:104D6000006F0144464800EBC410406F01444448C2
:104D700000E0D2E000EBC410806F0144404800EB3B
:104D8000C410C06F08443E4901EBC411496D88420C
:104D900075D93B4800EBC410416D394800EBC41095
:104DA000C06D81426BD3364800EBC41090ED0E0A03
:104DB000B8EE400AF6EE000A20EE200A9FED311A06
:104DC000C0EE010A2E4800EBC41090ED130AB8EEB5
:104DD000400A30EE600AF6EE000A30EE200ABDEE20
:104DE000C00A274800EBC41080ED130A244800EBEA
:104DF000C410C06CB0F1E04F04D2214800EBC410E5
:104E0000C06C03E01E4800EBC41000691C4901EBB4
:104E1000C411C8641A4800EBC410C16C184800EBF8
:104E2000C4100069814204D9154800EBC410C06C5D
:104E300003E0134800EBC4100069114901EBC411F1
:104E4000C8640F4800EBC41090ED130AB8EE400A96
:104E5000F6EE000A60EE200A9FED0A1A80EE810A43
:104E6000F6EE000A30EE200ABDEEC00A10EE100A7F
:104E7000034901EBC411C96D014405E04BE049E071
:104E8000646C002000007A44264800EBC410C16521
:104E9000244800EBC410816B224800EBC41090ED55
:104EA0000C0AB8EE400AF6EE000A60EE200AB7EEF1
:104EB000001AB6EE000A00EE810ABDEEC00A10EE3E
:104EC000100A814221D9174800EBC41090ED0E0A58
:104ED000B8EE400A134800EBC410D0ED0C0AF8EE0F
:104EE000600AB6EE001A60EE810AB7EE001A00EE14
:104EF000C10AF6EE000A30EE200ABDEEC00A0948EB
:104F000000EBC41080ED0E0A04E00021054800EB20
:104F1000C410816300E000BF00BF024800EBC41072
:104F2000C06C10BD646C00202DE9F05F04460E4695
:104F300015461F46DDE90CABDDE90A89164800EB92
:104F4000C4100670144800EBC4108560124800EBD2
:104F5000C410C564104800EBC410C7600E4800EBD5
:104F6000C410C0F810800C4800EBC410C0F8589072
:104F7000094800EBC410C0F81CA0074800EBC4109F
:104F8000C0F820B02046FEF701FA20460BF0BEF82C
:104F90000020BDE8F09F0000646C00200748006816
:104FA00000F0006040B10548806840F000600349AF
:104FB00088600020024908637047000000600240DA
:104FC000780200200748406800F0200040B1054802
:104FD000C06840F020000349C86000200249086012
:104FE00070470000006002407802002005484068D9
:104FF00000F4001028B10348C06840F400100149D3
:10500000C8607047006002400548406800F00060DA
:1050100028B10348C06840F000600149C86070478B
:10502000006002400648006800F4001038B10448EF
:105030000830006840F400100149083108607047EA
:10504000046402400848006800F0006050B106485F
:105050000830006840F00060034908310860002013
:105060000249086070470000046402407802002092
:105070001CB501202B4908802B4908800020009096
:105080000346032210210190284802F07DF90120F7
:105090002449088024490880002000900346032208
:1050A00020210190214802F06FF92148006840F06A
:1050B00001001F4908600846006840F002000860CF
:1050C00008460068086008460068086008460068EE
:1050D0000860084600680860084600680860C81450
:1050E0001349083108601248006840F480301049C4
:1050F00008600846006840F4003008600846006810
:1051000008600846006808600846006808600846AD
:1051100000680860084600680860C8140449143133
:1051200008601CBD74084742000647420000024068
:10513000007400400146082904DA044850F82100B0
:10514000008870474FF0FF30FBE70000FC030020B1
:105150000246082A05DA044850F82200018000209F
:1051600070474FF0FF30FBE7FC0300203CB5009197
:105170009DED000AB8EE400AF0EE000A20EE200A8B
:10518000DFED2E0A80EE201AB6EE000A31EE000A9C
:10519000BDEEC00A8DED010A2DE000EE102AB8EE3A
:1051A000400AF0EE000A60EE200A9FED241A80EE1D
:1051B000810AF6EE000A30EE200ABDEEC00A10EEBB
:1051C000104A009D2C4400949DED000AB8EE400A60
:1051D000F0EE000A20EE200A9FED181AC0EE010A38
:1051E000B6EE000A30EE800ABDEEC00A10EE104A9C
:1051F000019D2C440194019C9C42CED39DED000A5C
:10520000B8EE400AF0EE000A20EE200A9FED0B1ADD
:10521000C0EE010A9DED010AB8EE400A30EE600AC8
:10522000F6EE000A30EE200ABDEEC00A8DED010A4E
:10523000DDE90045C0E900453CBD000000007A44BE
:105240003CB500919DED000AB8EE400AF0EE000A70
:1052500020EE200ADFED2F0A80EE201AB6EE000ABB
:1052600031EE000ABDEEC00A8DED010A13B900242B
:1052700001944AE02DE000EE103AB8EE400AF0EE5C
:10528000000A20EE200A9FED231AC0EE010AB6EEB6
:10529000000A30EE800ABDEEC00A10EE104A009DF2
:1052A0002C4400949DED000AB8EE400AF0EE000A8E
:1052B00020EE200ADFED170A80EE201AB6EE000A73
:1052C00031EE000ABDEEC00A10EE104A019D2C44DA
:1052D000019400EE103AB8EE400AF7EE080A20EE0C
:1052E000200AF0EE000A20EE200ADFED0A0A80EE26
:1052F000201AB6EE000A31EE000ABDEEC00A10EE2A
:10530000104A009D2C449442B5D3DDE90045C0E924
:1053100000453CBD00007A447CB504469DED060A7C
:1053200000EE903AF8EE600AB8EE401AF6EE001A77
:1053300041EE610AB6EE001A70EE810AFDEEE00A57
:1053400010EE900A00EE900AF8EEE00AB6EE001AAF
:1053500020EE811ADFED451AC1EE210AB6EE001AE1
:1053600070EE810AFDEEE00A10EE905A0D440095B1
:10537000DDED000AF8EE600AB6EE001A60EE810A72
:105380009FED3A1AC0EE811AF6EE000A71EEA00AFD
:10539000FDEEE00ACDED010A00EE900AF8EEE00A1B
:1053A000B8EE401AF6EE001A41EE610AB6EE001AA7
:1053B00070EE810AFDEEE00A10EE900A3FE000EE8A
:1053C000900AF8EEE00AB6EE001A60EE810ADFED10
:1053D000271A80EEA11AF6EE000A71EE200AFDEE01
:1053E000E00A10EE905A009E35440095DDED000A6B
:1053F000F8EE600AB6EE001A20EE811ADFED1B1AF5
:10540000C1EE210AB6EE001A70EE810AFDEEE00A46
:1054100010EE905A019E3544019500EE900AF8EE88
:10542000E00AB8EE401AF6EE001A41EE610AB6EE56
:10543000001A70EE810AFDEEE00A10EE900AF8EE16
:10544000400AB7EE081A20EE811AF6EE001AF6EEC0
:10545000000A41EE210AFDEEE00A10EE905A854264
:10546000ADDBDDE90056C4E900567CBD00007A449E
:105470007CB5044600919DED000AB8EE400AF6EEB8
:10548000000A20EE200A9FED3B1AC0EE010AB6EE9C
:10549000000A30EE800ABDEEC00A8DED010A00EE72
:1054A000103AF8EE400AB6EE001AB6EE000A00EE28
:1054B000810ABDEEC00A10EE100A40E000EE100AAC
:1054C000B8EE400AF6EE000A20EE200A9FED291AF7
:1054D000C0EE010AB6EE000A30EE800ABDEEC00A48
:1054E00010EE105A009E354400959DED000AB8EE6E
:1054F000400AF6EE000A20EE200A9FED1E1AC0EECA
:10550000010AB6EE000A30EE800ABDEEC00A10EEC7
:10551000105A019E3544019500EE103AB8EE400A4B
:10552000F6EE000A60EE200AB7EE001AB6EE000AA8
:1055300000EE810ABDEEC00A10EE105A284400EEBB
:10554000103AB8EE400AF6EE000A60EE200AB6EE17
:10555000001AB6EE000A00EE810ABDEEC00A10EE97
:10556000105A05449542A9D3DDE90056C4E9005616
:105570007CBD000000007A443CB500919DED000A1E
:10558000B8EE400AF6EE000A20EE200A9FED341A2B
:10559000C0EE010AB6EE000A30EE800ABDEEC00A87
:1055A0008DED010A00EE103AB8EE400ADFED2D0A4B
:1055B000B4EEE00AF1EE10FA4BDD2DE000EE103A09
:1055C000B8EE400AF6EE000A20EE200ADFED240ACB
:1055D00080EE201AB6EE000A31EE000ABDEEC00AD7
:1055E00010EE104A009D2C4400949DED000AB8EE88
:1055F000400AF6EE000A20EE200ADFED190A80EEDE
:10560000201AB6EE000A31EE000ABDEEC00A10EE16
:10561000104A019D2C44019400EE103AB8EE400A65
:10562000F7EE080A20EE200AF6EE000A20EE200A25
:10563000DFED0B0A80EE201AB6EE000A31EE000A0A
:10564000BDEEC00A10EE104A009D2C449442B5D322
:1056500001E000240194DDE90045C0E900453CBDBE
:1056600000007A440000FA44F0B52DED028B83B0BF
:1056700007460D4616461C46B0EE408A01959DED44
:10568000010AB8EE400AF0EE000A20EE200ADFED33
:10569000460A80EE201AB6EE000A31EE000ABDEE90
:1056A000C00A8DED020AB0EE480A0298FEF70FFC20
:1056B0008DED000AECB300EE104AB8EE400AF0EEB1
:1056C000000A20EE200ADFED380A80EE201AB7EE3D
:1056D000000AB4EEC01AF1EE10FA57DDB54255D209
:1056E00037E000EE104AB8EE400AF0EE000A20EE75
:1056F000200A9FED2D1AC0EE010AB6EE000A30EE28
:10570000800ABDEEC00A10EE100A0199084401900B
:105710009DED010AB8EE400AF0EE000A20EE200AE4
:10572000DFED210A80EE201AB6EE000A31EE000A03
:1057300000E02BE0BDEEC00A8DED020AB0EE480A93
:105740000298FEF7C4FBDDED000A30EE200A8DED75
:10575000000A00EE104AB8EE400AF7EE080A20EE02
:10576000200AF0EE000A20EE200ADFED0F0A80EE9C
:10577000201AB6EE000A31EE000ABDEEC00A10EEA5
:10578000100A01990844B042ABD304E001959FEDA3
:10579000070A8DED000A9DE8070087E8070003B0BF
:1057A000BDEC028BF0BD000000007A440000000058
:1057B0003CB500EE103AB8EE400AF6EE000A20EED4
:1057C000200ADFED370A80EE201AB6EE000A31EE2D
:1057D000000ABDEEC00A10EE104A0C4400949DED84
:1057E000000AB8EE400AF6EE000A20EE200ADFEDCD
:1057F0002C0A80EE201AB6EE000A31EE000ABDEE49
:10580000C00A8DED010A2DE000EE103AB8EE400A14
:10581000F6EE000A20EE200A9FED211AC0EE010AE2
:10582000B6EE000A30EE800ABDEEC00A10EE104A55
:10583000009D2C4400949DED000AB8EE400AF6EE5F
:10584000000A20EE200ADFED160A80EE201AB6EEDE
:10585000000A31EE000ABDEEC00A10EE104A019DAA
:105860002C44019400EE103AB8EE400AF6EE000A1D
:1058700020EE200A9FED0B1AC0EE010AB6EE000AD8
:1058800030EE800ABDEEC00A10EE104A009D2C4496
:105890009442B9D3DDE90045C0E900453CBD0000B4
:1058A00000007A440000FA443CB500EE103AB8EE2D
:1058B000400AF0EE000A20EE200A9FED431AC0EEE7
:1058C000010A00EE101AB8EE400A30EE600AF6EE59
:1058D000000A30EE200ABDEEC00A8DED000A9DEDF3
:1058E000000AB8EE400AF0EE000A20EE200ADFEDD2
:1058F000360A80EE201AB6EE000A31EE000ABDEE3E
:10590000C00A8DED010A1BB900920024019455E0F4
:1059100038E000EE103AB8EE400AF0EE000A20EE51
:10592000200A9FED291AC0EE010A9DED000AB8EE8B
:10593000400A30EE600AF6EE000A30EE200ABDEEB4
:10594000C00A8DED000A009C944203D3009CB4F180
:10595000E04F00D900929DED000AB8EE400AF0EE4B
:10596000000A60EE200A9FED181A80EE810AF6EE1A
:10597000000A30EE200ABDEEC00A10EE104A019D6A
:105980002C44019400EE103AB8EE400AF0EE000A02
:1059900020EE200A9FED0C1AC0EE010AB0EE001AAC
:1059A00080EE810AF6EE000A30EE200ABDEEC00A53
:1059B00010EE104A1444009DAC42AAD3DDE9004524
:1059C000C0E900453CBD000000007A447CB50446B7
:1059D0009DED060A00EE903AF8EE600AB8EE401A25
:1059E000F6EE001A41EE610AB6EE001A70EE810A78
:1059F000FDEEE00A10EE900A00EE900AF8EE600A62
:105A0000B6EE001A60EE810ADFED4E1A80EEA11AA2
:105A100000EE901AF8EE600A70EEC10AB6EE001AB7
:105A200070EE810AFDEEE00ACDED000ADDED000A20
:105A3000F8EE600AB6EE001A60EE810A9FED411A98
:105A4000C0EE811AF6EE000A71EEA00AFDEEE00A41
:105A5000CDED010A00EE900AF8EE600AB8EE401AA9
:105A6000F6EE001A41EE610AB6EE001A70EE810AF7
:105A7000FDEEE00A10EE900A4AE000EE900AF8EE21
:105A8000600AB6EE001A60EE810ADFED2E1A80EE93
:105A9000A11ADDED000AF8EE600A70EEC10AB6EE5A
:105AA000001A70EE810AFDEEE00ACDED000A009DBD
:105AB000954203D3009DB5F1E06F00D90092DDED72
:105AC000000AF8EE600AB6EE001A60EE810A9FED59
:105AD0001D1AC0EE811AF6EE000A71EEA00AFDEE64
